:020000040800F2
:10000000380A002089010008D12C00085F20000870
:10001000CF2C000815030008C134000800000000C0
:10002000000000000000000000000000992D000802
:100030000B04000800000000972D00089B2D00080D
:10004000A3010008A3010008A3010008A301000800
:10005000A3010008A3010008A3010008A3010008F0
:10006000A3010008A3010008A3010008A3010008E0
:10007000A3010008A3010008C9030008D503000874
:10008000A3010008A3010008A3010008A3010008C0
:10009000A3010008A3010008A3010008A3010008B0
:1000A000A30100080D2E0008012E0008A30100087E
:1000B000A3010008A3010008A3010008A301000890
:1000C000A3010008A3010008A3010008A301000880
:1000D000A3010008B5340008A3010008A30100082B
:1000E000A3010008A3010008A301000800F002F822
:1000F00000F03AF80AA090E8000C82448344AAF188
:100100000107DA4501D100F02FF8AFF2090EBAE885
:100110000F0013F0010F18BFFB1A43F0010318473B
:10012000E84C0000084D0000103A24BF78C878C1A0
:10013000FAD8520724BF30C830C144BF04680C60ED
:10014000704700000023002400250026103A28BF35
:1001500078C1FBD8520728BF30C148BF0B60704739
:100160001FB51FBD10B510BD00F06CF81146FFF7AC
:10017000F7FF03F0FDFB00F08AF803B4FFF7F2FF8E
:1001800003BC00F08DF8000009488047094800478B
:10019000FEE7FEE7FEE7FEE7FEE7FEE7FEE7FEE737
:1001A000FEE7FEE704480549054A064B7047000094
:1001B000FD2D0008ED00000838040020380A00205A
:1001C00038060020380600204FF0000200B5134624
:1001D00094469646203922BFA0E80C50A0E80C5067
:1001E000B1F12001BFF4F7AF090728BFA0E80C5018
:1001F00048BF0CC05DF804EB890028BF40F8042B11
:1002000008BF704748BF20F8022B11F0804F18BF7D
:1002100000F8012B704770477047704710B500F029
:1002200009F8006810BD10B5044600F003F804603A
:1002300010BD000000487047D803002000487047F8
:10024000D80300207546FFF7F9FFAE460500694662
:10025000534620F00700854618B020B5FFF7A2FFEF
:10026000BDE820404FF000064FF000074FF00008B7
:100270004FF0000B21F00701AC46ACE8C009ACE838
:10028000C009ACE8C009ACE8C0098D46704710B59C
:100290000446AFF300802046BDE81040FFF76DBF75
:1002A00001491820ABBEFEE726000200704700009F
:1002B00070B5164C01682160416861600189218137
:1002C000807AA07294F9040004F002FB104E3146CB
:1002D00004F020FA04F11805286094F9050004F0F0
:1002E000F7FA314604F016FA686094F9060004F053
:1002F000EFFA314604F00EFAA86094F9070004F012
:10030000E7FA314604F006FAE86070BD18030020F1
:100310000000C842FEE7000070B5134D0E46040011
:1003200006D400220421284600F0FCFA012205E050
:1003300001220421284600F0F5FA0022082128466F
:1003400000F0F0FA32461021284600F0EBFA002CBB
:1003500000DA644220B244F62061884200DD08469B
:1003600002490968886370BD00080140AC010020A3
:1003700070B5134D0E46040006D4002220212846F5
:1003800000F0D0FA012205E001222021284600F0E9
:10039000C9FA00224021284600F0C4FA3246102152
:1003A000284600F0BFFA002C00DA644220B2B0F513
:1003B000803F00DD002003490968886370BD0000AC
:1003C00000080140F4010020014800F091B800004D
:1003D00084020020014800F08BB80000C802002011
:1003E00030B590F840500124AC40C56B6C60046897
:1003F00063604368102B036803D099600068C26093
:1004000030BD9A600068C16030BD704772B6FEE7CB
:1004100010B590F821100022022905D00421816333
:1004200080F82020012010BD01680B6823F00E0326
:100430000B6001680B6823F001030B6090F84030FB
:10044000C46B012101FA03F3636080F8211080F886
:100450002020104610BD000010B590F82110002497
:10046000022903D00421816301243DE001680A6868
:1004700022F00E020A6001680A6822F001020A6096
:100480001A4A0168914201D1012121E0174A143230
:10049000914201D110211BE0144A2832914201D12E
:1004A000891515E0114A3C32914201D189140FE0BF
:1004B0000E4A5032914202D14FF4803108E00B4A8B
:1004C0006432914202D14FF4801101E04FF080710B
:1004D000064A083A5160012180F82110002180F875
:1004E0002010416B01B18847204610BD0800024032
:1004F0002DE9F05FC16B0C6801680B68D0F840C053
:10050000042202FA0CF2494DDFF824A1494E4A4F69
:10051000DFF828B1DFF828E122422CD05A072AD58B
:100520000A68920603D40A6822F004020A6001688D
:10053000A94201D1042219E0514501D1402215E020
:10054000B14202D14FF4806210E0B94202D14FF4BF
:1005500080420BE0594502D14FF4802206E07145FC
:1005600002D14FF4800201E04FF080622F49083938
:100570004A60C16A3BE04FF0020808FA0CF818EA3A
:10058000040F4FF000094FF0010235D05FEA837885
:1005900032D50B689B0605D40B6823F00A030B6069
:1005A00080F821200168A94201D1022219E05145B9
:1005B00001D1202215E0B14202D14FF4007210E0C7
:1005C000B94202D14FF400520BE0594502D14FF429
:1005D000003206E0714502D14FF4001201E04FF005
:1005E0000072124908394A6080F82090816A002917
:1005F0001AD0BDE8F05F0847082505FA0CF525423A
:1006000012D01B0710D50B6823F00E030B6090F877
:100610004010C36B02FA01F15960826380F8212017
:1006200080F82090016BE2E7BDE8F09F08000240EF
:100630001C000240300002404400024058000240CA
:100640006C00024030B528B308C81349142219447D
:10065000B1FBF2F18900C163104981630221417746
:100660001A6843F6F0718A43D0E900142143D0E9B7
:1006700002452C4321430469214344692143846991
:100680002143114319600021416301224277017720
:10069000084630BD012030BDF8FFFDBF000002401C
:1006A00070B5044690F82000002501280CD00120E8
:1006B00084F8200094F821600020012E06D084F8F0
:1006C00020000225284670BD022070BD022684F855
:1006D0002160A0632068066826F0010606602046B7
:1006E000FFF77EFEE06A00282068016802D041F032
:1006F0000E0106E021F0040101602068016841F06C
:100700000A0101602068016841F001010160D9E738
:1007100070B5044600F00CF90546601C02D0044890
:100720000078044400F004F9401BA042FAD370BDE5
:10073000000000202DE9F84FDFF8B8910024A9F15E
:10074000040B23460F2709F1040AABF1040EC9E09C
:100750000125A5402A40AA427DD1674ED1F804C0A8
:10076000ACEB0608B44532D014DCBCF1030F3AD030
:1007700009DCBCF1000F2AD0BCF1010F1CD0BCF188
:10078000020F31D11DE0BCF1110F17D0BCF1120FD7
:100790002AD119E0B8F5881F19D006DCB8F5803FDA
:1007A00015D0B8F5801F1FD111E0B8F5001F0ED08D
:1007B000B8F5041F18D10AE0CB6815E0CB681B1D03
:1007C00012E0CB6808330FE0CB680C330CE08B6889
:1007D0002BB1012B4FF0080303D0456104E0042343
:1007E00002E0056100E00023FF2A01D8064601E08F
:1007F00000F104064FEA840501D9A5F12005D6F8D9
:10080000008007FA05FC28EA0C0803FA05F548EA17
:100810000508C6F800804D68ED0062D5374DAE6919
:1008200046F00106AE61AD6924F0030605F001054E
:100830000095334D06EB050CDCF80850A607360F83
:1008400007FA06F825EA0805DFF8B880404503D125
:100850004FF0000817E044E0DFF8AC80404502D1DB
:100860004FF001080FE0DFF8A480404502D14FF0BF
:10087000020808E0DFF89880404502D14FF00308F5
:1008800001E04FF0040808FA06F848EA0508CCF839
:1008900008804D68D9F80060ED024D4601D5164339
:1008A00000E096432E604D68DAF80060AD025546D0
:1008B00001D5164300E096432E604D68DBF80060DA
:1008C000AD035D4601D5164300E096432E604D68AA
:1008D000DEF80060ED03754601D5164300E096434F
:1008E0002E60641C0D682A46E5407FF431AFBDE8F8
:1008F000F88F0000080401400000111000100240B1
:100900000000014000080140000C014000100140BF
:1009100000140140C26821EA02030A4043EA02418E
:10092000016170470AB1016170470904FBE70000EB
:1009300001488068704700000000002070B5040086
:1009400025D094F83D00002520B984F83C5020467D
:1009500000F07EFA242084F83D002068016821F030
:10096000010101602068016841F4004101602068D4
:10097000016821F40041016000F0E4FB4D4A616828
:10098000914201D84C4900E04C49884201D20120F3
:1009900070BD4B492368B0FBF1F15E6826F03F065D
:1009A0000E435E606368934206D94FF496735943D1
:1009B0004FF47A73B1FBF3F12368491C1E6A26F0E9
:1009C0003F06314319626168914210D84900401EC8
:1009D000B0FBF1F2521CC2F30B02042A01D2042034
:1009E00022E0B0FBF1F0401CC0F30B001CE0A26859
:1009F000F2B301EBC10303EB0116431EB3FBF6F3A5
:100A00005B1C43F480431B0549D092B301EBC10248
:100A100002EB0111401EB0FBF1F0401CC0F30B00D3
:100A200040F4804040F400402168CA694CF6FF73EE
:100A30009A431043C861D4E9071001432068026853
:100A400022F0C00211430160D4E903010143206890
:100A5000826848F2FF339A4311438160D4E905016B
:100A600008432168CA6822F0FF021043C86001E011
:100A70000EE016E02068016841F001010160256484
:100A8000202084F83D00256384F83E50002070BD8E
:100A900001EB4106431EB3FBF6F35B1CB3E70120F9
:100AA000C2E701EB4101401EB0FBF1F0401CC0F376
:100AB0000B00B7E7A086010080841E0000093D00FE
:100AC00040420F002DE9FF4F83B00025DDE910798A
:100AD0009A4693460446DDF848800095FFF728FFC4
:100AE000064694F83D0020287CD11923012288492C
:100AF0002046009601F0CAFB0028F5D194F83C008E
:100B000001286FD0012084F83C0020680168C907E3
:100B100003D1016841F0010101602068016821F4FE
:100B200000610160222084F83D00402084F83E00EE
:100B300025646762A4F82A90608D20857548E0627C
:100B4000CDE9008653465A462046049901F0A0FAA2
:100B500000287CD1208DDFF8C091202768B10128C2
:100B600014D00228206801681ED041F48061016021
:100B70002068416980690090BCE020684169816912
:100B80000091016841F400710160B3E020680168E0
:100B900021F48061016072B6206841698169009129
:100BA000016841F400710AE041F40061016072B62D
:100BB0002068416981690091016821F480610160C8
:100BC00062B697E0032865D801280CD00228434676
:100BD0004FF000024946204600960BD001F056FB2C
:100BE000A8BB0CE091E032464146204601F0F4FB00
:100BF00068BB72E001F04AFB48BB72B633E0206884
:100C0000016821F48061016072B620680069616A40
:100C10000870606A401C6062208D401E2085608DD7
:100C2000401E60853D4846F2A8110068B0FBF1F017
:100C3000C0EBC00000EB80000090401E009007D089
:100C400020684069C04340070DD50098F5E727E0CC
:100C500044F8305F6773A573206940F0200020617D
:100C600062B625731CE02068016841F400710160E0
:100C700020680069616A0870606A401C6062218DAA
:100C8000491E2185618D491E618562B62168096909
:100C9000017026E032464146204601F09DFB18B126
:100CA000012007B0BDE8F08F20680069616A087014
:100CB000606A401C6062208D401E81B22185608D7B
:100CC000401E608520684269D243520712D403292E
:100CD00003D1016821F48061016020680069616AC4
:100CE0000870606A401C6062208D401E2085608D07
:100CF000401E6085208D00287FF464AF84F83D702D
:100D000084F83E5084F83C50CBE70220C9E700004D
:100D1000020010000000FFFF040001000C00002092
:100D20002DE9FF4F83B09A46DDE9119793460446BB
:100D3000DDF84080FFF7FCFD054694F83D002028D3
:100D40007FD11923012240492046009501F09EFAE7
:100D5000002876D194F83C00012872D0012084F854
:100D60003C0020680168C90703D1016841F0010116
:100D700001602068016821F400610160212084F88D
:100D80003D00402084F83E0000262664C4F82480FC
:100D9000A4F82A90608D20852C48E062CDE900758A
:100DA00053465A462046049901F0F0F970B930E0F4
:100DB0002A463946204601F047FB58B1206C0428EA
:100DC00004D12068016841F400710160012007B07E
:100DD000BDE8F08F606A216800780861606A401C95
:100DE0006062218D491E89B22185628D521E628505
:100DF00022685369DB435B070BD469B1007810614B
:100E0000606A401C6062208D401E2085608D401EFF
:100E10006085208D0028CBD12A463946204601F036
:100E200009FA0028CAD154F83D0B016841F4007159
:100E30000160202004F81E09E67766770020C6E7E7
:100E4000FFE70220C3E70000020010000000FFFFE0
:100E500030B585B0002100910191029103911E4DA2
:100E600003681E4C122103221D48AB4216D1A36910
:100E700043F00803A361A369039203F008030493FA
:100E8000C023CDE900316946FFF754FCE06940F426
:100E90000010E061E06900F4001019E0114DAB4270
:100EA00017D1A36943F00803A361A369039203F078
:100EB000080304934FF44063CDE900316946FFF71E
:100EC00039FCE06940F48000E061E06900F48000F2
:100ED000049005B030BD00000054004000100240F6
:100EE000000C01400058004002488168027811441B
:100EF0008160704700000020074810B5016841F08C
:100F000010010160032000F075F80F2000F006F8D2
:100F100000F024F8002010BD0020024070B50D4DF7
:100F200004464FF47A712878B1FBF0F00A49096859
:100F3000B1FBF0F000F0DCFA48B9102C07D2002227
:100F40002146501E00F036F800206C6070BD012074
:100F500070BD0000000000200C0000200C4808B507
:100F6000816941F001018161816901F00101009114
:100F7000C16941F08051C161C06900F080500090AA
:100F80000448416821F0E06141F00071416008BD12
:100F90000010024000000140002809DB00F01F02A1
:100FA000012191404009800000F1E020C0F80011CB
:100FB00070470000F0B40E4B1B680C46C3F30223CD
:100FC000C3F10705042D00D90425191D072901D2F5
:100FD000002300E0DB1E012606FA05F1491E214030
:100FE00099409E40761E16403143F0BC02F07DBA17
:100FF0000CED00E0064900F0070208684FF6FF0319
:10100000184040EA0220034A10430860704700007D
:101010000CED00E00000FA052DE9F0470F46050051
:1010200061D0434E306800F00700B84209D2306802
:1010300020F0070038433060306800F00700B84205
:1010400051D128683B4C810712D5400703D5606811
:1010500040F4E06060602878000703D5606840F4E1
:10106000605060606068A96820F0F000084360602C
:101070002878C00728D06868012810D02168022885
:1010800010D0890700292EDA616821F0030101439D
:101090006160FFF74DFC804641F288390DE0216820
:1010A0008903EFE78901EDE7FFF742FCA0EB0801B8
:1010B000494502D90320BDE8F0876068696800F0FF
:1010C0000C00B0EB810FEFD1306800F00700B842A0
:1010D0000BD9306820F0070038433060306800F0EA
:1010E0000700B84201D00120E5E72878400705D580
:1010F0006068E96820F4E0600843606028780007D1
:1011000006D56068296920F4605040EAC10060603B
:1011100000F038F86168084AC1F30311515CC84017
:101120000649086006480068FFF7F8FE0020C2E79D
:101130000020024000100240504D00080C0000202A
:10114000040000200448054900684968044AC1F3C6
:101150000221515CC84070470C0000200010024082
:10116000604D00080448054900684968044AC1F315
:10117000C221515CC84070470C00002000100240A2
:10118000604D00080E4A51680E4801F00C03042B14
:1011900011D0082B0FD10C48C1F38343C903C05CA5
:1011A0000AD55168084AC1F34041921E515C054A74
:1011B0005043B0FBF1F070470449484370470000CA
:1011C0000010024000127A00404D000800093D0066
:1011D0002DE9F84F040070D02078C04DC00749D0E9
:1011E0006868C0F38100012807D06868C0F38100F7
:1011F000022809D16868C00306D52868800339D55C
:1012000060680028E7D035E06068B0F5803F0BD01B
:1012100010B1B0F5A02F11D0286820F480302860DC
:10122000286820F4802002E0286840F4803028609C
:10123000606890B1FFF77CFB06460AE0286840F43E
:1012400080202860F0E700BFFFF772FB801B642856
:1012500073D828688003F7D50CE0FFF769FB0646D2
:1012600005E000BFFFF764FB801B6428F0D8286806
:101270008003F7D420789A4E80074FF001094FF091
:10128000000839D5686810F00C0F07D06868C0F303
:101290008100022809D16868C00306D42868800745
:1012A00014D52069012808D110E02069B0B1C6F832
:1012B0000090FFF73DFB074605E00AE1FFF738FB2A
:1012C000C01B0228C4D828688007F7D52868616940
:1012D00020F0F80040EAC10028600DE0C6F8008068
:1012E000FFF726FB074604E0FFF722FBC01B02289E
:1012F00023D828688007F7D4207800072CD57948B0
:10130000A169D9B1C0F80090FFF712FB074604E0CD
:10131000FFF70EFBC01B02280FD8686A8007F7D5BD
:1013200071484FF4FA510068B0FBF1F0009000BF33
:101330000098411E0091FAD20EE080E0C0F80080D3
:10134000FFF7F6FA074604E0FFF7F2FAC01B02289F
:1013500075D8686A8007F7D42078400760D5E869B7
:101360000027C00008D4E86940F08050E861E869CF
:10137000012700F0805000905C480168C90513D433
:101380000168834641F480710160FFF7D1FA82461B
:1013900006E000BFFFF7CCFAA0EB0A0064284ED8A5
:1013A000DBF80000C005F5D5E06801280AD008B1D7
:1013B000052813D0286A20F001002862286A20F04E
:1013C000040002E0286A40F001002862E06841F26F
:1013D000883B98B1FFF7ACFA82460BE0286A40F0F0
:1013E00004002862EEE700BFFFF7A2FAA0EB0A01B3
:1013F00059455AD8286A8007F6D50CE0FFF798FAC5
:10140000824605E0FFF794FAA0EB0A0159454CD853
:10141000286A8007F6D41FB1E86920F08050E8619F
:10142000E06988B36968C1F38101022944D00228C8
:10143000C6F8608004D0FFF77BFA044638E034E059
:10144000FFF776FA074604E0FFF772FAC01B02289E
:101450002BD828688001F7D4206AB0F5803F05D1E9
:101460006868A16820F4003008436860D4E9080186
:101470000843696821F4741108436860C6F86090F5
:10148000FFF756FA044606E025E000BFFFF750FAE2
:10149000001B022809D828688001F7D51BE000BF8F
:1014A000FFF746FA001B022802D90320BDE8F88F97
:1014B00028688001F4D40EE00128F7D06868226A19
:1014C00000F48031914204D1616A00F470108842C6
:1014D00001D00120EAE70020E8E700000010024008
:1014E00000004242800442420C0000200070004094
:1014F00010B5401EB0F1807F01D3012010BD4FF028
:10150000E02460610F21601701F0EFFF0020A0616F
:1015100007202061002010BD7047704770B590F81B
:101520003C20012A26D0012480F83C40022280F889
:101530003D2003685A689D6822F070060A683243AD
:101540005A600D4B02689A4208D0B2F1804F05D024
:101550000A4B9A4202D00A4B9A4204D1496825F0BC
:1015600080031943916080F83D40002180F83C10D1
:10157000084670BD022070BD002C014000040040F0
:101580000008004010B5040003D094F83D0010B1ED
:1015900007E0012010BD002084F83C00204600F048
:1015A0001FF8022084F83D00211D206801F034FC62
:1015B000012084F8460084F83E0084F83F0084F857
:1015C000400084F8410084F8420084F8430084F825
:1015D000440084F8450084F83D00002010BD000060
:1015E00008B51B4A01681B48914219D1816941F431
:1015F000006181618069002200F400600090114662
:101600001920FFF7D7FC1920FFF7C6FC002211466E
:101610001A20FFF7CFFCBDE808401A20FFF7BCBC3A
:10162000B1F1804F0BD00C4A914207D1C16941F012
:101630000201C161C06900F00200009008BDC169EB
:1016400041F00101C161C06900F00100F5E700004F
:10165000002C0140001002400004004090F83D10B2
:10166000012901D001207047022180F83D10016856
:10167000CA6842F00102CA6000680B49884208D07B
:10168000B0F1804F05D00949884202D0084988420C
:1016900004D1816801F00701062903D0016841F0F7
:1016A0000101016000207047002C0140000400404F
:1016B0000008004070B5044690F83C000025012861
:1016C00017D0012684F83C60022084F83D00206891
:1016D000826822F0770222F47F42826008685028F4
:1016E00038D00DDC20284FD005DC90B3102811D164
:1016F0004AE0022070BD302846D040280AD13BE0A5
:1017000060282FD070280DD0B0F5805F03D0B0F5E1
:10171000005F12D0012584F83D60002084F83C0071
:10172000284670BDCB68D1E90121206801F0BDFBDE
:101730002068816841F0770109E0CB68D1E9012197
:10174000206801F0B2FB2068816841F4804181602B
:10175000E1E719E0CA684968206801F05BFC5021A4
:10176000206806E0CA684968206801F064FC6021CE
:10177000206801F0A4FBCEE7CA684968206801F040
:1017800049FC40212068F4E7226801461046F0E752
:1017900070472DE9F04104460068C66805694FF0BE
:1017A0000007A90713D5B10711D5F91E0161012062
:1017B0002077206880698007204602D0FFF7E8FF85
:1017C00004E000F0B1F8204600F043F927776807FD
:1017D00016D5700714D521686FF004000861022047
:1017E00020772068806910F4407F204602D0FFF700
:1017F000CFFF04E000F098F8204600F02AF92777A0
:10180000280715D5300713D521686FF00800086147
:10181000042020772068C0698007204602D0FFF7A7
:10182000B7FF04E000F080F8204600F012F92777B7
:10183000E80616D5F00614D521686FF0100008618F
:10184000082020772068C06910F4407F204602D02D
:10185000FFF79EFF04E000F067F8204600F0F9F87B
:101860002777E80708D0F00706D021686FF001005D
:101870000861204600F03CF9280608D5300606D558
:1018800021686FF0800008612046FFF745FE68067A
:1018900008D5700606D521686FF040000861204623
:1018A00000F088F9A8060AD5B00608D521686FF0BF
:1018B000200008612046BDE8F041FFF72EBEBDE8DC
:1018C000F081000010B586B00021009101910291D5
:1018D00003910368114902221148B3F1804F13D0DC
:1018E000104CA3420ED18B6943F004038B618969CC
:1018F00001F0040104918021CDE9001269460392B0
:10190000FEF718FF06B010BD8B6943F004038B612E
:10191000896901F0040104910321EDE70010024000
:101920000008014000040040704770B5044690F87C
:101930003C0000260D4601280FD0012084F83C0011
:101940006AB1042A1DD0082A2FD00C2A3FD00126C4
:10195000002084F83C00304670BD022070BD206835
:1019600001F0B6FA2068816941F0080181612068C0
:10197000816921F004018161206881692A6911432C
:1019800011E0206801F0CCFA2068816941F400611F
:1019900081612068816921F48061816120688169A9
:1019A0002A6941EA02218161D2E7206801F0E4FA64
:1019B0002068C16941F00801C1612068C16921F056
:1019C0000401C1612068C1692A69114311E02068DE
:1019D00001F0FEFA2068C16941F40061C16120682C
:1019E000C16921F48061C1612068C1692A6941EA45
:1019F0000221C161ACE710B5040003D094F83D00AA
:101A000010B107E0012010BD002084F83C00204602
:101A100000F01EF8022084F83D00211D206801F02E
:101A2000FBF9012084F8460084F83E0084F83F006A
:101A300084F8400084F8410084F8420084F84300B0
:101A400084F8440084F8450084F83D00002010BD6F
:101A50007047704710B50446022249B104290ED0E0
:101A6000082913D094F84100012816D0012010BD98
:101A700094F83E000128F9D184F83E200FE094F854
:101A80003F000128F2D184F83F2008E094F840009C
:101A90000128EBD184F8402001E084F841200122A4
:101AA000206801F0F5F90F492068884203D1426CA3
:101AB00042F4004242642068884208D0B0F1804F6E
:101AC00005D00949884202D00849884204D181687A
:101AD00001F00701062903D0016841F0010101600E
:101AE000002010BD002C0140000400400008004010
:101AF00010B5254C2178002944D00068234988423C
:101B000040D12349234800F0DBFD6078401CC0B27F
:101B1000607002281FD11E4900206070D1E91401B5
:101B200001F066FF02461A480021603001F0DAF841
:101B3000194902F081FD1949606002F0EBFD184976
:101B400002F012FF174902F077FD02F0A5FE1649D8
:101B500000B20968486315481549006802F004FF9F
:101B600002F09AFE00B202F0B3FEA06002F094FE12
:101B700000B20121FEF7D0FB0121BDE8104000209A
:101B8000FEF7F6BB10BD0000B0000020002C0140A5
:101B900050030020BC0000200000C4420000344379
:101BA0000000FA440000FA43AC010020300300209A
:101BB00000401C46704738B5044690F84200202883
:101BC00001D0022038BD51B14AB10120206300206C
:101BD0006063204601F026FC216B012901D0012021
:101BE00038BD21680A684968009121680C3151E8C4
:101BF000002F42F0100241E80023002BF5D138BD40
:101C000010B500680A49884210D10A480178AA290B
:101C100005D14078552802D10648FEF749FBBDE8BA
:101C200010400B2203490448FFF7C5BF10BD000058
:101C3000003801400C0300203C02002010B504468F
:101C40000068406994F84110C0F3C010212911D1F7
:101C500080B12068143050E8001F21F0800140E876
:101C60000012002AF5D1A06B08B1FEF7D1FB204687
:101C700001F00CFB2068406994F84210C0F380101A
:101C8000222911D180B12068143050E8001F21F0C2
:101C9000400140E80012002AF5D1E06B08B1FEF7E0
:101CA000B7FB204601F0CBFA002010BD70470000C2
:101CB000F8B5016804460868CA684B6910F00F0F50
:101CC0004FF0000559D003F0010602F49077374336
:101CD00065D0C10705D0D10503D5616C41F0010184
:101CE0006164410705D5D90703D0616C41F0020159
:101CF0006164810705D5D90703D0616C41F0040107
:101D00006164010707D502F02001314303D0616C03
:101D100041F008016164616C00293AD0800604D565
:101D2000900602D5204601F0BFFA20684069616C38
:101D3000C0F38010090700D460B3204601F07FFA99
:101D400020684069400621D52068143050E8001F03
:101D500021F0400140E80012002AF5D1E06BA8B163
:101D60006D494163E06BFEF777FB002811D0E06B13
:101D7000416B01B0BDE8F040084783060FD59306DC
:101D80000DD52046BDE8F84001F08EBA2046FFF799
:101D90008DFFF8BD2046FFF789FF6564F8BD266B0F
:101DA0002023012E7CD1C6067AD5D60678D50868C0
:101DB0004868009048694FF00206400640D5E16B44
:101DC000086840680004000CE8D0A28D8242E5D982
:101DD000E085886920282DD020680C3050E8001F4D
:101DE00021F4807140E80012002AF5D120681430F7
:101DF00050E8001F21F0010140E80012002AF5D14F
:101E00002068143050E8001F21F0400140E8001223
:101E1000002AF5D184F84230256320680C3050E860
:101E2000001F21F0100140E80012002AF5D1E06BFC
:101E3000FEF7EEFA6663A08DE18D401A81B22AE0CA
:101E4000A08DE18D401A81B2E08D0028A6D0002936
:101E5000A4D022680C3252E8000F20F4907042E8BF
:101E60000007002FF5D12068143050E8002F22F031
:101E7000010240E80027002FF5D184F842302563A5
:101E800020680C3050E8002F22F0100240E80023B8
:101E9000002BF5D166632046FFF7B2FEF8BDFFE7E1
:101EA00005062BD5150629D594F841002128F5D132
:101EB000A068B0F5805F01D12069B0B1206A411CF3
:101EC0002162216800784860E08C401E0004000C0C
:101ED000E084E3D12068C16821F08001C1602068FE
:101EE000C16841F04001C160D8E7206A0088C0F3B2
:101EF00008004860206A801C2062E5E74006CDD5D6
:101F00005006CBD5CA68204622F04002CA6084F849
:101F1000413000F0A3F8C1E74131000870B504007A
:101F200004D094F84100002510B106E0012070BDF6
:101F300084F84050204600F023F8242084F8410023
:101F40002068C16821F40051C160204601F00EFAFA
:101F50002068016921F4904101612068416921F004
:101F60002A0141612068C16841F40051C160656483
:101F7000202084F8410084F842006563002070BD91
:101F8000F0B585B0002406460094019402940394B1
:101F900000682C49884253D12B48816941F4804123
:101FA0008161816901F480410491816941F00401FA
:101FB00081618069254D00F0040004904FF40070A9
:101FC0000090022001900320039069462846FEF706
:101FD000B1FB2815CDE90004694628460294FEF7B6
:101FE000A9FB1C4D1A48802701C5102091C519482E
:101FF00045F810496C61AC61EC61FEF723FB08B158
:10200000FEF704FAB5636E62124D11484435143080
:10201000C5E90004C5E902472C616C61AC61284642
:10202000EC61FEF70FFB08B1FEF7F0F9F563002253
:10203000114625206E62FEF7BDFF2520FEF7ACFF9E
:1020400005B0F0BD0038014000100240000801401A
:102050004400024084020020704770477047FEE74A
:1020600001684A69D24352050FD46FF480624A6115
:10207000002140F8301F202242738173026942F030
:1020800004020261017301207047002070470000C4
:102090002DE9F84F0446006889460B9D0168984673
:1020A000174641F4806101602068016841F4807145
:1020B000016000954FF0011B0022594620460A9B03
:1020C00000F0E4F84FF4007A40B120680068C005E1
:1020D00001D5C4F840A00320BDE8F88F216809F0BD
:1020E000FE0008612B46284920460A9A00F016F99E
:1020F000F0BB20684169806900902A4620460A9911
:1021000000F0A2F940B1206C04283AD1206801689F
:1021100041F40071016034E0FEB2B8F1010F09D062
:102120002168380A08612A4620460A9900F08CF98D
:102130000028E8D1206806612A4620460A9900F066
:1021400083F90028DFD12068016841F480710160C3
:1021500000950022594620460A9B00F097F8002877
:10216000B3D1216809F0FF0040F00100086100E0F0
:1021700007E02B46044920460A9A00F0CFF80028D1
:10218000AAD00120A8E70000020001002DE9F843D1
:10219000044600680D46DDE9089701689846164632
:1021A00041F4807101604B4600224FF0011120463E
:1021B000009700F06BF848B120680068C00502D5B0
:1021C0004FF4007020640320BDE8F883216805F017
:1021D000FE0008613B464A461549204600F09EF83D
:1021E00088B920684169806900903A46494620468E
:1021F00000F02AF948B1206C042804D12068016855
:1022000041F4007101600120DEE7F5B2B8F1010F81
:1022100009D02168300A08613A464946204600F054
:1022200013F90028E7D1206805610020CCE7000001
:102230000200010070B516460D4604461EE0204619
:10224000FFF70EFF08B1012070BD681C16D0FEF725
:102250006FFB801BA84200D885B920684069C04345
:1022600040070BD5002044F8300F20216173A07384
:10227000216941F0200121612073E4E72068406971
:10228000C0434007DBD4002070BD00002DE9F047BB
:10229000984617460D460446C1F30746DDF82090E0
:1022A0002AE000BFB8F1FF3F26D0FEF741FBA0EBCC
:1022B0000901414502D8B8F1000F1DD12068012E57
:1022C00016D0806925EA00000004000C12D000201E
:1022D000B84211D1002044F8300F20216173A0735F
:1022E000216941F02001216120730120BDE8F087C0
:1022F0004069E7E70120EBE72068012E0AD08069FA
:1023000025EA00000004000C06D00020B842C9D025
:102310000020EBE74069F3E70120F7E72DE9F047FC
:10232000984616460D4604464FF000094FF0200A25
:10233000C1F3074723E020684069C043400515D436
:102340002068016841F40071016021686FF48060C9
:102350004861C4F8309084F83DA084F83E90216C28
:1023600041F00401216484F83C9021E0701C06D007
:10237000FEF7DEFAA0EB0800B04203D816B1012F39
:102380001FD021E02068012F15D0806925EA0000C8
:102390000004000C18D000BF44F8309F84F80DA052
:1023A00084F80E90216941F02001216184F80C909D
:1023B0000120BDE8F087406925EA00000004000C18
:1023C000EAD12068406901E02068806925EA0000C0
:1023D0000004000CAFD1ECE72DE9F0410025904658
:1023E0000E460446202728E04069C043C0060CD4AE
:1023F00054F8301B6FF01000486144F810596777AB
:10240000A577206A2062257714E0FEF791FAA0EB09
:102410000800B04200D886B920684069C043400631
:102420000BD544F8305F6773A573206940F0200036
:10243000206125730120BDE8F08120684169C9430E
:102440004906D1D40020F6E770B516460D4604467D
:102450001EE02046FFF704FE08B1012070BD681C95
:1024600016D0FEF765FA801BA84200D885B920680F
:102470004069C04300060BD5002044F8300F2021EE
:102480006173A073216941F0200121612073E4E7A9
:1024900020684069C0430006DBD4002070BD2DE9F0
:1024A000FF5F96B024AD044695E88301D4E9082384
:1024B0000893069201F0AAFF3A46434601F080FDD8
:1024C000D4E9062301F0C6FA07911290D4E910A3CB
:1024D000524638464146099301F072FDCDE90001AC
:1024E000D4E90C939B464A4601F090FFD4E90E23B1
:1024F000CDE90B3201F08AFFD4E9002301F0AAFAFA
:102500003A46434601F05CFDD4E90A2301F0A2FA01
:1025100005460E46DDE900014A465B4601F084FEB1
:102520008B460490DDE90001DDE90B3201F07CFE11
:102530000D910090D4E902013A46434601F040FD76
:102540005246099B01F086FACDE90E01D4E9042335
:102550002846314601F07EFA80468A4602460B46FE
:102560002846314601F032FB81460F46424653462B
:102570000D99009801F02AFB80468A46DDE9180192
:10258000079B129A01F042FF0B914A463B4610907E
:1025900001F016FD079B129A01F05CFAC4E90601EE
:1025A00007911290404651460B9B109A01F008FD8E
:1025B000089B069A01F04EFAC4E9080104980690B7
:1025C0002A4633464846394601F0FAFC2A46334645
:1025D00001F02AFEC4E90A015B4648463946069ADC
:1025E00001F0EEFC5B46049A01F01EFEC4E90C010A
:1025F0002A4633464046514601F0E2FC0D9B009AC4
:1026000001F012FEC4E90E015B4640465146069AAF
:1026100001F0D6FCDDE90E2301F006FEC4E910014D
:10262000079912981AB0BDE8F09F00002DE9FF410C
:102630000125224E4FF47A740096CDE9015480466C
:102640002B467522D021FEF73DFA3078682803D05A
:10265000012004B0BDE8F081002703AE8DF80C70B6
:102660000096CDE9015401236B22D0214046FEF7AC
:1026700057FB07208DF80C000096CDE9015401238B
:102680001922D0214046FEF74BFB8DF80C700096C6
:10269000CDE9015401231C22D0214046FEF740FB26
:1026A0008DF80C700096CDE9015401231B22D02136
:1026B0004046FEF735FB0020CBE70000100000206D
:1026C0002DE9F04F89B00C464FF47A730E2204A91D
:1026D0008DE80E0001233B22D021FEF7F3F9BDF86F
:1026E000100040BA01B22180BDF8120040BA00B219
:1026F00060808146BDF8140040BA00B2A0808046D8
:10270000BDF8160040BA0FFA80FABDF8180040BABA
:1027100000B220840746BDF81A0040BA06B26684AB
:10272000BDF81C0040BA05B2A584084601F0E2FBE2
:102730006FF00D0B5A4602F0BCFAC4E9020148469C
:1027400001F0D8FB5A4602F0B4FAC4E9040140464D
:1027500001F0D0FB0022794B01F038FAC4E9060100
:10276000504602F0B5F8764901F0D4FF754901F002
:1027700063FF2064384601F0BDFB734F00223B46E7
:1027800001F024FAC4E90A01304601F0B3FB00224B
:102790003B4601F01BFAC4E90C01284601F0AAFBF4
:1027A00000223B4601F012FA0022684B01F02EFE97
:1027B000664B00225B42C4E90E0101F0FFFC09D226
:1027C000D4E90E010022624B01F0BEFB02D20020D0
:1027D000C4E90E00FEF7ACF8DFF878B15D46DBF82F
:1027E0000810401A01F09DFB00225B4B01F0EEF94E
:1027F00007468846FEF79CF8A860B4F90010B4F9C3
:102800000400494300FB001001F074FB01F0C9F81B
:10281000002205460E46134601F030FB10D0B4F9F5
:10282000020001F067FB2A46334601F0CFF900F0C1
:10283000CFFE4A4A4A4B01F0C3FB81468A4602E07A
:10284000002189468A46B4F9040001F053FB06468C
:10285000B4F900000D46404201F04CFB32462B46D5
:1028600000F0C6FF3D4A3E4B01F0AAFB05460E466E
:1028700000223C4B01F068FB06D2D4E9140100228F
:10288000394B01F09BFC0DD30022374B28463146D3
:1028900001F094FC0DD2D4E914010022314B01F077
:1028A00053FB06D22B485830C0E90656C4E91456EB
:1028B0000DE0CDE90278D4E90C01CDE9000125480D
:1028C0002A4633465830FFF7EAFDC4E91401D4E93B
:1028D000140121F000410022234B01F06FFC03D2D0
:1028E000E16A81F00041E162CDE90278D4E90A01B0
:1028F000CDE9000117484A4653461030FFF7CFFD97
:10290000C4E91201D4E90E013A46434601F058FBEE
:1029100005460F465E46DBF8040001F061FE2A46DC
:102920003B4601F097F801F063F8706001F058FE43
:10293000C4E9160109B0BDE8F08F00000029CC40C1
:102940000000AA43B81E1242006060400000104020
:102950000000F03F1000002000408F40F8C1631AD3
:10296000DCA54C40008056C0008056400D4808B59C
:10297000416941F0010141614069002200F001001C
:10298000009011460E20FEF715FB0E20FEF704FB0B
:10299000002211460F20FEF70DFBBDE808400F2076
:1029A000FEF7FABA00100240F0B585B000252448C1
:1029B0000095019502950395816941F010018161AF
:1029C000816901F010010491816941F02001816168
:1029D000816901F020010491816941F00401816164
:1029E000816901F004010491816941F0080181616C
:1029F0008069144E00F008004FF400540490002247
:102A000021463046FDF78EFF0F4F01227C213846CC
:102A1000FDF788FF0320CDE90250009401246946A8
:102A200001943046FDF786FE7C20CDE900040220AB
:102A3000CDE9024069463846FDF77CFE05B0F0BDA1
:102A40000010024000100140000801400D4810B580
:102A50000B4901600C49416000214FF480428160C4
:102A6000C0E9031241618161C1610162FDF766FF46
:102A7000002803D0BDE81040FDF7C8BC10BD000021
:102A800000540040BC000020801A06000D4810B51C
:102A90000B4901600C49416000214FF48042816084
:102AA000C0E9031241618161C1610162FDF746FF26
:102AB000002803D0BDE81040FDF7A8BC10BD000001
:102AC0000058004010010020A086010010B586B01B
:102AD0000024174800940194029403940494134929
:102AE000059401604721C0E9011440F2E731C0E9D3
:102AF000031444618461FEF745FD08B1FDF786FCCF
:102B00004FF48050009069460948FEF7D3FD08B1A4
:102B1000FDF77CFC049404A905480594FEF7FEFC2F
:102B2000002801D0FDF772FC06B010BD002C01405A
:102B30006401002010B58EB0002407940894099415
:102B40000A940B941C2168460C94FDF73DFB224827
:102B50004FF0804101604721C0E9011444F61F6134
:102B6000C0E9031480218161FEF70CFD08B1FDF777
:102B70004DFC4FF48050079007A91748FEF79AFDC7
:102B800008B1FDF743FC1448FEF735FF08B1FDF727
:102B90003DFC0B940BA910480C94FEF7BFFC08B148
:102BA000FDF734FC6020CDE9000402940022694660
:102BB00009480494FEF7B9FE08B1FDF727FC04228A
:102BC00069460548FEF7B1FE08B1FDF71FFC024853
:102BD000FEF778FE0EB010BDAC01002010B58EB02F
:102BE00000240794089409940A940B941C216846C5
:102BF0000C94FDF7E9FA1E481C49C0E900144FF691
:102C0000FF71C0E90241802104618161FEF7BAFCD5
:102C100008B1FDF7FBFB4FF48050079007A914485B
:102C2000FEF748FD08B1FDF7F1FB1148FEF7E3FEA2
:102C300008B1FDF7EBFB0B940BA90D480C94FEF7C4
:102C40006DFC08B1FDF7E2FB6020CDE900040294C1
:102C50000422694606480494FEF767FE08B1FDF7B2
:102C6000D5FB0348FEF72EFE0EB010BD0004004059
:102C7000F40100200C4810B50A4901604FF4E1311D
:102C80004160002181600C22C160C0E904128161B1
:102C9000C161FFF743F9002803D0BDE81040FDF7FC
:102CA000B5BB10BD003801403C02002070B50446A1
:102CB00015460E46006801F023FE01D2266070BD65
:102CC0002946206801F01CFFF9D2256070BDFEE79F
:102CD000FEE770B50DF1100C9CE87000066280E80C
:102CE0003E0070BD2DE9F04E0E46044615464FF0ED
:102CF0007E5A1146304601F035FFC4E9056583462A
:102D00005946206801F030FEE568814615F0FF4F16
:102D100010D067682846394601F0FCFC064685F06D
:102D20000040394601F0F6FC0146324604F1240029
:102D3000FFF7BCFF266A5046314601F015FE5946A2
:102D400001F012FE616A01F077FC01466062606882
:102D500001F00AFE05464146584601F003FFA1680E
:102D600001F002FE314601F0D5FC064629464846F0
:102D700001F062FC314601F05FFC10F0FF4FE061B2
:102D800006D0226904F11C0082F00041FFF78EFF9B
:102D9000E069BDE8F08E70477047FEF7A5B830B522
:102DA0008FB028216846FDF70FFA14210AA8FDF715
:102DB0000BFA01210804CDE9001000240294022539
:102DC0000491CDE907504FF4E01009906846FEF7F2
:102DD000FFF908B172B6FEE70F20CDE90A054FF4FE
:102DE0008060CDE90C4002210AA80E94FEF714F988
:102DF000002801D072B6FEE70FB030BD704700006A
:102E00000148FEF7C6BC0000640100200148FEF73F
:102E1000C0BC000064010020F0B50268194B1A4CD8
:102E20001A4D4FF08047984205D0B84203D0A042D7
:102E300001D0A84203D122F070064A68324398427A
:102E400005D0B84203D0A04201D0A84203D122F459
:102E50004074CA6822434C6922F080022243026017
:102E60008A68C2620A688262984201D10969016374
:102E7000012141610169C90703D0016921F0010104
:102E80000161F0BD002C014000040040000800403A
:102E900010B501F01F030121046A99408C430462BC
:102EA000016A9A401143016210BD10B5846842EA7C
:102EB000032224F47F440A432243826010BD8268C7
:102EC00022F070020A4342F007018160704700005F
:102ED00030B5036A026A22F0010202624268846924
:102EE00024F073050C682C4323F002058B682B43F8
:102EF0000A4DA8420BD123F00805CB6822F440729A
:102F00002B434D6923F0040315438A692A43426029
:102F1000846149684163036230BD0000002C0140B8
:102F200030B5026A036A23F01003036243688469C0
:102F30000D6824F4E64444EA05248D6822F020025A
:102F400042EA05120B4DA8420ED1CD6822F0800254
:102F500042EA05124D6923F4406343EA85038D6913
:102F600022F0400243EA850343608461496881633B
:102F7000026230BD002C014030B5036A026A22F4BF
:102F8000807202624268C46923F4007324F07305FE
:102F90000C682C438D6843EA05230C4DA8420ED1E2
:102FA000CD6823F4006343EA05234D6922F44052BF
:102FB00042EA05128D6923F4806342EA05124260F9
:102FC000C4614968C163036230BD0000002C014048
:102FD00030B5046A026A22F4805202624268C36910
:102FE0000D6823F4E64343EA05238D6824F4005476
:102FF00044EA0534064DA84204D14D6922F48042CA
:1030000042EA85124260C36149680164046230BDCE
:10301000002C014010B5036A046A24F00104046224
:10302000846924F0F00444EA021423F00A020A43FB
:103030008461026210BD10B5036A046A24F01004B2
:103040000462846923F0A00324F4704444EA023249
:1030500043EA01118261016210BD0000FEB51E4805
:10306000FEF7FCFA00211D48FEF7F4FC04211B4882
:10307000FEF7F0FC04211A48FEF7ECFC002108469C
:10308000FDF74AF90B2217491748FEF794FD4FF454
:103090000054164D40F2F31606E021462846FDF78F
:1030A00039FC3046FDF734FB1148FFF7BFFA002822
:1030B000F3D140F2E730FDF72BFB0E490E480090AC
:1030C000CDE9010100231A460C490D48FFF701FE26
:1030D0000C4901200870FEBD64010020AC010020F5
:1030E000F40100200C0300203C02002000100140ED
:1030F000BC0000206F12033B000070410000A040A4
:10310000B0030020B000002010B500224FF40051A1
:103110000848FDF707FC0848406C002809D006481D
:10312000FEF78CFDBDE810400B2204490248FEF773
:1031300042BD10BD001001403C0200200C030020E5
:1031400010B5406A0021C185C184FEF7AFFD10BDF6
:1031500070B5446A2068406994F84110C0F3C0100B
:103160000025212904D118B1E584204600F08EF80D
:103170002068406994F84210C0F38010222904D1DD
:1031800018B1E585204600F05AF8606C40F0100058
:1031900060642046FEF78AFD70BD10B50146406AA6
:1031A000096809684FF0000289062ED4C2850168BB
:1031B0000C3151E8003F23F4807341E80034002CC7
:1031C000F5D10168143151E8003F23F0010341E8D3
:1031D0000034002CF5D10168143151E8003F23F090
:1031E000400341E80034002CF5D1202180F8421042
:1031F000016B012909D101680C3151E8003F23F02E
:10320000100341E80034002CF5D14263016B012921
:1032100002D0FEF721FF10BD818DFEF7F1FC10BD3D
:1032200010B5406A01214163016B012902D0FEF70C
:1032300014FF10BD818D4908FEF7E2FC10BD016846
:103240000C3151E8002F22F4907241E80023002B4A
:10325000F5D10168143151E8002F22F0010241E854
:103260000023002BF5D1016B012909D101680C3134
:1032700051E8002F22F0100241E80023002BF5D185
:10328000202180F8421000210163704701680C3151
:1032900051E8002F22F0C00241E80023002BF5D1B5
:1032A000202180F84110704708B590F8421022297B
:1032B00001D0022008BD82684FF480539A4201D1A8
:1032C000016921B1816A9A421BD04AB10AE00268C1
:1032D000816A5268C2F308020A80816A891C08E088
:1032E000026972B10268526802F07F020A70816A54
:1032F000491C8162C18D491E0904090CC18503D096
:103300001BE002685268F1E70168CA6822F02002F7
:10331000CA600168CA6822F48072CA6001684A699A
:1033200022F001024A61202180F84210002141630D
:10333000026B012A03D0FEF78FFE002008BD016357
:1033400001680C3151E8002F22F0100241E80023FF
:10335000002BF5D101680A68D20602D50A684968CF
:103360000091818DFEF74CFCE7E7000070B5044644
:1033700000680169E26821F440511143016121694B
:10338000A0680843616908432168CA6841F20C6378
:103390009A430243CA6020684169A26921F44071DE
:1033A000114341611E492068884202D1FDF7DAFECF
:1033B00001E0FDF7C7FE00EBC00101EB0012606801
:1033C00064218000B2FBF0F3B3FBF1F36FF0180659
:1033D0007343B2FBF0F5B2FBF0F605EB8305322345
:1033E00003EB0515B5FBF1F5B6FBF1F605F0F005BD
:1033F00005EB0615B2FBF0F6B2FBF0F0B0FBF1F016
:103400006FF01802504306EB800003EB0010B0FB96
:10341000F1F0216800F00F002844886070BD0000C2
:103420000038014038B58162044682850020134689
:103430006064222284F84220E56B1B4AAA62E56B95
:103440001A4AEA62E56B1A4A2A63E26B50630A463B
:103450002168E06B091DFDF723F9206801684068C9
:103460000090206948B120680C3050E8001F41F4FA
:10347000807140E80012002AF5D12068143050E82D
:10348000001F41F0010140E80012002AF5D1206838
:10349000143050E8001F41F0400140E80012002ABB
:1034A000F5D1002038BD00009B3100082132000812
:1034B000513100080148FEF7FBBB00003C02002030
:1034C000FEE7490050EAC12018BF04204A0D18BF8A
:1034D00040F0010040F2FF72B2EB515F08BF40F0D4
:1034E0000200012808BF052070470907090E0028BF
:1034F00004DB00F1E02080F80014704700F00F00BA
:1035000000F1E02080F8141D70472DE9F0414F1EB6
:1035100000EBC7010446D1E9000115461E4637F00D
:1035200006020DD02A46334600F04AFD7F1E04EB0A
:10353000C703D3E9002300F08DFA37F00602F1D17A
:10354000022F25D0042F13D0062F18BFBDE8F0811D
:103550002A46334600F034FDD4E90A2300F07AFA13
:103560002A46334600F02CFDD4E9082300F072FA15
:103570002A46334600F024FDD4E9062300F06AFA17
:103580002A46334600F01CFDD4E9042300F062FA19
:103590002A46334600F014FDD4E9022300F05AFA1B
:1035A0002A46334600F00CFDD4E90023BDE8F04183
:1035B00000F050BA012201F07CBB00F04BBA0000D1
:1035C000024A0020110701F074BB000001FDFFFF5B
:1035D0002DE9F84F04460D4621F000400091734953
:1035E000814211DC7249884201DC06D12CB12046AF
:1035F0002946BDE8F84FFFF7DDBF6E48002DCCBF70
:103600006D496E49BDE8F88F6D49814211DD6D4904
:103610008142D8BF4FF0FF366DDD20462946FFF7C7
:1036200050FF042808BFFFF7CBFF20462946BDE81E
:10363000F88F6549654F25F00045814233DD6449C7
:10364000814219DD002632464FF08043204629464C
:1036500000F000FA80468A4601222046294601F001
:1036600028FB00223B4600F0D1FE4246534600F0C4
:10367000ADFA04460D463EE001260022BA463B461E
:103680002046294600F0E6F980460F4600225346C0
:103690002046294600F0BAFE42463B4600F096FA24
:1036A00004460D4627E04B4981421BDDDFF828A187
:1036B0000226002253462046294600F081FC0022C3
:1036C0003B4600F0C7F980460F460022534620468D
:1036D000294600F09BFE42463B4600F077FA04463E
:1036E0000D4608E0032622462B4600203B4900F009
:1036F0006DFA04460D4622462B461046194600F048
:103700005FFC8B46824602460B4600F059FC07469A
:103710000246334888460B4606217844FFF7F5FEFB
:1037200052465B4600F04CFC82462E488B463A4699
:10373000434605217844FFF7E8FE3A46434600F049
:103740003FFC02460B46002E504659460CDA00F06C
:1037500081F922462B4600F033FC01B022462B466D
:10376000BDE8F04F00F060BD00F074F922462B4632
:1037700000F026FC1C4A7A4402EBC603D3E900237E
:1037800000F044FE22462B4600F040FE174A7A44E1
:1037900002EBC603D3E9002300F046FD009A002A9D
:1037A000B8BF81F00041BDE8F88F00000000104470
:1037B0000000F07F182D4454FB21F93FFB21F9BF95
:1037C0000000DC3F0000203E0000F33F0000F03F1F
:1037D0000000E63F008003400000F83F0000F0BF1B
:1037E000B2160000701600000E160000D61500007C
:1037F0002DE9F04D9446CCF1000423F000464CEA4C
:103800000404524F46EAD4749A46884621F0004296
:10381000BC4206D8454240EA050442EAD474BC42A0
:1038200004D9BDE8F04D6246FFF7C7BEAAF1405586
:10383000A5F17F6555EA0C040BD0022404EAAA74B2
:10384000434DDFF810E144EAD87452EA000B04D08B
:103850000CE0BDE8F04DFFF7BBBE002C14BF012CFF
:10386000BDE8F08D022C30D0032C32D056EA0C0B80
:103870000AD0BE4220D1BA4209D126F0804622F0B9
:1038800080423346114617E000291ADB25E0DFF8B5
:10389000C8B0FB44002C04BFDBE90001BDE8F08D9B
:1038A000012C02BFDBE9000181F00041BDE8F08D91
:1038B000022C0AD0032C0CD0BA4212D1B8F1000F5E
:1038C0000BDA23482549BDE8F08D28462449BDE898
:1038D000F08D28467146BDE8F08D1D482149BDE8B0
:1038E000F08D921B12153C2AC4BF19481D490EDCED
:1038F000BAF1000FBEBF12F13C0F0020014606DBFB
:10390000624600F063F921F00041FFF761FE002CF0
:1039100008BFBDE8F08D012C04BF81F00041BDE877
:10392000F08D114A114B022C07D000F06FFD2A4692
:10393000BDE8F04D0A4B00F069BD00F067FD2A4676
:10394000BDE8F04D064B00F06FBC00000000F07FBA
:10395000182D4454FB2109C06A150000FB21F9BF52
:10396000FB210940FB21F93F075C143326A6A13C4B
:10397000FDF7C2FAFFF713FAFFF716F8FEF7F6FFA6
:10398000FFF764F8FFF782F8FFF774F9FFF79EF886
:10399000FFF7D0F8FFF722F9FFF760FBFFF7B4FB62
:1039A000FCE72DE9F04106460F4600F049FC041EF5
:1039B0000D4618BF0120284320F00040C0F17F6071
:1039C00000F1E040C00F0ED0301C18BF012038437A
:1039D00020F00040C0F17F6000F1E040C00F04BF64
:1039E0000120FCF720FC20462946BDE8F0810000BC
:1039F00021F00042A2F16052B2F5801F01F00043B5
:103A000028BFD2F17F6C0BD95FEA001C43EAC202E7
:103A100042EB507018BF704728BF20F0010070477C
:103A2000B2F5801FBCBF184670474FEA410C1CF529
:103A3000001F02D2084601F05EB870B500F06AFBC4
:103A400000000089FFF7F6BF4FF00040A0F58000AE
:103A50007047000010B591EA030F48BF83F00043A0
:103A600000F1DC84841A71EB030C05D2121943EBCC
:103A70000C03001B61EB0C01DFF824E14FEA115449
:103A8000A4EB135C1EEA430F18BF9EEA445F73D099
:103A900023EA0E03DCF1200E21EA045143F48013E3
:103AA00032D322FA0CFE10EB0E0023FA0CFE41EB8F
:103AB0000E01CCF1200E03FA0EFE10EB0E0051F1B8
:103AC0000001B1F5801FCCF1200E32D201EB045180
:103AD00012FA0EF2BDE8104058BF7047401C38BFC4
:103AE0005FEA420218BF7047002814BF20F00100AF
:103AF00041F100014FEA410313F5001F38BF704741
:103B0000A1F1C04100F054BB012A43EB0302ACF128
:103B1000200CDCF11F0E32BF4FF0000E23FA0CF325
:103B200010EB030041EB0451B4EB115FD0D0A1EBDB
:103B3000045101F5801149085FEA300001EB04519E
:103B40000ED350F1000038BF12FA0EFE08D1BDE8C6
:103B50001040C9E7401C38BF5FEA4202CAD1C3E740
:103B6000BDE810404FEA410313F5001F38BF70470E
:103B7000A1F1C04100F01CBB9EEA445F08D011EAED
:103B80005E0FBDE8104004BF01F000410020704707
:103B9000BDE8104070B500F0BDFA00BF64FBBE3E4A
:103BA0000000E0FF02494FF0000001F050B800BFF4
:103BB0000000F87F491058BFC1F140415B1058BF69
:103BC000C3F140438B42EFF3008070472DE9C041C1
:103BD00030B4DFF8A0C23CEA111418BF3CEA131459
:103BE00000F0EC8081EA03051CEA111444EAD57464
:103BF00018BF1CEA131500F0C780A4EB05044FF0B2
:103C0000004545EAC12145EAC32341EA505143EA50
:103C1000525304F17F74994204F500344FEAC020F6
:103C20004FEAC22208BF904200F09C804FEA136521
:103C30000FF24016765D4FEA134506FB05F7C7F114
:103C4000807706FB07F74FEAD737A7FB0368764272
:103C5000C8F58038A7FB06CE38BFA8F1010807FBDE
:103C600008E64FF0000EA6FB028CE6FB03CEDCF16B
:103C7000000CCEF1004E38BFAEF1010EA6FB0C5881
:103C80004FF000074FF00005E6FB0E87A1FB08C6CA
:103C9000A0FB07CE16EB0E0645F10005E1FB07651C
:103CA00015F1E04E7EBFA4F580345FEA46066D4113
:103CB00016F1800745F100054FEA17274FEA06661F
:103CC00047EA0567A6F1DE46B6F1805F4FEA1525A3
:103CD0001FD9384624F0010C05EBC471BCF1FE6F0E
:103CE00001EB0C1102D8F0BCBDE8008124425CBF9E
:103CF00001F5801E9EEAC47F02D4F0BCBDE80081BD
:103D0000244238D4F0BCA1F1C041BDE8004100F02C
:103D10004FBA4FEAD22242EA43524FEAD323A7FBDB
:103D200002864FEAD02040EA415007FB03661EEAB4
:103D30000E0F4FEAD12105FB026658BFA6EB0056D5
:103D4000B6EB00564FEA520E4EEAC37E18EB0E0E4B
:103D500056EB530EBDD518EB02085E417F1C55F1A2
:103D60000005B6E74FF480154FF000074FF000064E
:103D70004FF00008ADE7F0BC4FF0000001F1C0418A
:103D800001F00041BDE8008111EA0C1F0CEA131597
:103D900000D00CE013EA0C1F00F025804FF000006B
:103DA000F0BC81EA030101F00041BDE80081F0BCF4
:103DB000BDE8004181EA030100F0FAB9F0BCBDE8BA
:103DC000004170B500F0A6F9097EFC3E00F007B88E
:103DD00081EA03014FF0000001F00041704781EAE1
:103DE000030100F0E5B9F0BCBDE800414FF0000070
:103DF00021497047FFFDFBF9F7F5F4F2F0EEEDEB2A
:103E0000E9E8E6E4E3E1E0DEDDDBDAD8D7D5D4D3D8
:103E1000D1D0CFCDCCCBCAC8C7C6C5C4C2C1C0BF24
:103E2000BEBDBCBBBAB9B8B7B6B5B4B3B2B1B0AF2A
:103E3000AEADACABAAA9A8A8A7A6A5A4A3A3A2A10E
:103E4000A09F9F9E9D9C9C9B9A99999897979695C9
:103E500095949393929191908F8F8E8E8D8C8C8B65
:103E60008B8A8989888887878685858484838382ED
:103E7000828181800000FF070000F87F51EA030C77
:103E800017D41CF5801F58BFBCF5801F00F10680B9
:103E9000994218BF704708BF9042704707D711F585
:103EA000801F58BF13F5801F19D49942704789426B
:103EB00070471CF5801F08D5BCF5801FF7D58B42D5
:103EC00018BF704708BF824270474FF4001C1CEBBC
:103ED000410F38BF1CEB430F01D28B42704770B5C6
:103EE00000F018F9922449004FF000514FF0805330
:103EF000FFF760BE10F0004248BF4042B0FA80F3C6
:103F000010FA03F10AD0C3F11D0303F580634FEAF1
:103F1000415002EB035202EBD12170474FF00000F9
:103F20007047B0FA80F310FA03F10AD0C3F11D0311
:103F300003F580634FEA41504FEA035202EBD1216F
:103F400070474FF00000704751EA030C17D41CF57E
:103F5000801F58BFBCF5801F00F10680994218BF32
:103F6000704708BF9042704707D711F5801F58BFB0
:103F700013F5801F19D499427047894270471CF588
:103F8000801F08D5BCF5801FF7D58B4218BF70473E
:103F900008BF824270474FF4001C1CEB410F38BF32
:103FA0001CEB430F01D28B42704770B500F0B2F8A2
:103FB000922449004FF000514FF08053FFF7FABDB3
:103FC000DFF848C170B51CEA111E1EBF1CEA1315AC
:103FD0009EEA0C0F95EA0C0F00F06F8081EA030453
:103FE00023EA4C134EEAD47E21EA4C1141F48011AD
:103FF00043F48013AE44A1FB024CA0FB0365AEF179
:104000007F7E361955EB0C05A1FB034C4CF10003E8
:10401000A0FB021C16EB0C06654153F1000309429C
:1040200018BF46F0010613F4007F0BD14FEA0331AD
:104030004FEA0530340341EA155140EA16506FF05B
:1040400003020AE04FEAC3214FEAC520F40241EA25
:10405000555140EA56506FF0020202EB2E4201EB3E
:10406000025585EACE710AD05FEA440C18BF24F0ED
:10407000004450F1000041F1000120EAD47040F208
:10408000FE7C624500D270BDA84214BF4FF0804450
:104090004FF04044002E08BF0024BEF1806FA8BF3F
:1040A000A1F1C041BDE8704080F282804FF0000075
:1040B00001F1C04101F0004170479EEA0C0F0CEA8B
:1040C000131518BF95EA0C0F06D04FF0000081EAD7
:1040D000030E0EF0004170BD00F01CF88900013E97
:1040E00000F007B800F009B84FEA430C5FEA5C5CE7
:1040F00008D081EA030100F05BB84FEA410C5FEAA7
:104100005C5CF6D14FF00000014970470000FF07EA
:104110000000F87F0EF1020E2EF0030E5EF8046B25
:10412000364205D4012A43EB030515F5001F12D8CA
:10413000012841EB010C1CF5001F0CD80ED14FEAF1
:10414000D17C15F5001F0CEB4C0C0CF1020C08BFD8
:104150004CEBD37C04E04FF0080C01E04FEAD37C39
:104160000CEB4C0526FA05F606F00706B6F1040C32
:1041700006D20EEB860CBDE870404CF0010C604797
:10418000DFE80CF0090B02024FF000414FF0000095
:10419000A1F5002170BD19461046012851EB01041C
:1041A00018BFD4F5001484BF002001F0004170BD99
:1041B0000808A0F500114FEA3101704753EA010CDD
:1041C00017D41CF5801F58BFBCF5801F00F1068076
:1041D0008B4218BF704708BF8242704707D713F55C
:1041E000801F58BF11F5801F19D48B4270479B4226
:1041F00070471CF5801F08D5BCF5801FF7D5994284
:1042000018BF704708BF904270474FF4001C1CEB6A
:10421000430F38BF1CEB410F01D2994270470FB4D6
:104220000CBC03BCFFF7C1BE91EA030F10B581F0CF
:1042300000413FF517AC83F0004300F0EFB80000F9
:104240002DE9F04101F5801CBCF5001FC0F2C380D0
:104250004FEA115C21EA0C510CF1FD0C41F4801184
:104260005FEA5C0C0CF5C07C01D3400049413DA4E1
:10427000890241EA905187028E0E0A0CA45D04FB6C
:1042800004F602FB06F6C6F14046A4FB0662F60DF4
:1042900046EA422606FB06F4A4FB01235242C3F180
:1042A000404338BF5B1EA6FB02420024E6FB03240A
:1042B000D20B42EA4446A6FB0623A1FB02E2A3FB83
:1042C00007E4A4184FF0000252F10002E3FB0142A0
:1042D0006442C2F1404E38BFAEF1010EA6FB04238A
:1042E0004FF00002E6FB0E32A2FB03464FF0000443
:1042F000B61954F10004E2FB0264A1FB06E6A4FB3C
:1043000007E816EB08064FF0000858F10008E4FB38
:1043100001687642C8F1405838BFA8F10108A2FBF5
:1043200006E4A3FB08E52D194FF0000454F1000446
:10433000E2FB0854A1FB05E6A7FB04E818EB06081E
:104340004FF0000656F10006E1FB048618F1200547
:1043500056F10006A809A8F11B08B10908F03F08AA
:10436000B8F10A0F40EA86601CD901EB0C51BDE898
:10437000F08100BFFCF5EEE8E2DDD8D3CFCBC7C3B8
:10438000C0BDB9B6B4B1AEACA9A7A5A3A19F9D9B72
:104390009A9896959392908F8D8C8B898887868535
:1043A00084838281A0FB006800FB01F208EB4208D5
:1043B000B8EB872807D5341858EB0104D5D5401C35
:1043C00051F10001D1E7341A78EB0104CDD4401E3D
:1043D00071F10001C9E75FEA4C0C5FEA9C5C0DD10A
:1043E00005D34FF0000001F00041BDE8F081BDE8C9
:1043F000F04170B5FFF78EFE6DDBFFBEBDE8F0410A
:104400004FF00000004970470000F87F10B591EAB6
:10441000030F48BF83F000433FF524AB841A71EBD0
:10442000030C07D212198CF0004C43EB0C03001B59
:1044300061EB0C01DFF8A4E14FEA1154A4EB135C2B
:104440001EEA430F18BF9EEA445F00F0B08023EAE3
:104450006E03524221EA0451C3EB6E0338BF5B1E68
:10446000DCF1200E25D322FA0CFE10EB0E0043FAED
:104470000CFE41EB0E01CCF1200E03FA0EFE10EB08
:104480000E0051F10001CCF1200E29D412FA0EF2E7
:1044900001EB0451BDE8104058BF7047401C1CBFE1
:1044A000B2F1004F704700280CBF491C20F00100FA
:1044B000704712EB020E43EB030218BF4FF0010EE0
:1044C0004EEA4202ACF1200CDCF11E0E54D943FA44
:1044D0000CFE10EB0E0051F1FF31CCF11E0ED5D5C4
:1044E0000EF1010E12FA0EFE404141EB010101EB0B
:1044F000445C5FEA5C5C10D910EBDE7001EB0451A8
:1045000038BFBEF1004FBDE8104018BF704700280B
:104510000CBF491C20F00100704730D24FEAD42C68
:1045200011F5001124F400641BD0B1FA81F20B3AAA
:10453000A41AA41ED2F12003914030FA03F31943C8
:10454000904001EBCC71002C01EB0451BDE8104010
:10455000A8BF704701F1C0414FF0000001F00041D9
:104560007047B0FA80F310FA03F100D110BDE41ADD
:10457000173C4805C90AE4E701EB045110BD491096
:1045800001EB0451BDE810404FEA300002E04FF06B
:10459000000170474A0008BF0042F8D0B2F5001F82
:1045A00028BF704701F000414FF0000070479EEABD
:1045B000445F07D011EA5E0FBDE8104004BF002140
:1045C00000207047BDE8104070B5FFF7A3FD00BFA5
:1045D00040DFF63E83F00041104670470000E0FFE8
:1045E00043004FEAD30C4FEA3C0C43401FBF400747
:1045F0000CF1605113F0FE4F70471CF0006F03D1B7
:1046000000200CF0004170470CF0004343EA50706A
:1046100010B540EACC0000F028FA00BF000000927C
:104620004FEA0001FFF7C4BD4FF000414FF000001A
:10463000A1F500217047000090EA010F48BF81F00A
:10464000004100F19682421A3CBF801A89184FEA55
:10465000D0524FF07F4C1CEA410FA2EBD15318BF50
:104660009CEA026F00F03B804FF0004C4CEA0020C7
:104670004CEA012121FA03FC10EB0C0C1ED202F1D2
:10468000FF325FEA1C2040EBC25038BF70471CF07D
:104690007F0F4FEA400C18BFBCF17F4F38BF704707
:1046A000C3F12003994008BF20F00100BCF17F4F07
:1046B00038BF7047A0F1C04000F01DBA4FEA3C007F
:1046C000000A40EBC25028BF1CF0FF0F4FEA400C1D
:1046D000E6D018BFBCF17F4F38BF7047EAE79CEACD
:1046E000026F05D010EA5C0F08BF00F00040704771
:1046F00010B500F0BAF900BF64FBBE3E401058BFD1
:10470000C0F14040491058BFC1F140418142EFF330
:10471000008070474FF47F0C1CEAD0121EBF1CEAC9
:10472000D11392EA0C0F93EA0C0F00F0858090EA07
:10473000010F48BF42F4807240F4000C41F40000C5
:104740002CF07F4120F07F4000B58142A2EB0302B4
:104750000FF2081CACEB504EC0F100009EF800E0D8
:104760004FEA4E0E00FB0EFC38BF49004FEA2C1CEE
:1047700002F5FA020CFB0EF34FEACE1E4FEA112CA3
:104780004FEAC1210EEB635E42EB22420EFB0CFCB2
:104790004FEA1C5300FB03114FEA112C4FEA013181
:1047A0000EFB0CFC4FEADC4C00FB0C11C14228BF95
:1047B00009184CEB03335DF804EB10EB410143EBBC
:1047C000C250B2F57C0F38BF704729D512F0F00FF8
:1047D0001CBF00F1C04000F00040704700818283A0
:1047E0008485868788898B8C8D8E8F919293959600
:1047F00097999A9C9D9FA0A2A3A5A7A8AAACAEB08A
:10480000B2B3B5B7B9BCBEC0C2C5C7C9CCCED1D48E
:10481000D7D9DCDFE2E6E9ECF0F3F7FAFE000000BE
:104820004FEA400C0CF1807CBCF17E4F28BF7047F2
:10483000B0F1C04000F05FB990EA010F0CEAD1136B
:1048400048BF42F48072624538BF634507D213F413
:104850007F0F16D080EA010000F00040704710B5CD
:1048600000F003F9097EFC3E00F005B880EA010083
:1048700000F00040704780EA010000F0004000F0C6
:104880003AB912F47F0F04BF0248704780EA010072
:1048900000F031B90000C07F41000B0ED3F19E0241
:1048A00008D950F400034FEA032323FA02F048BF6B
:1048B0004042704710B500F0D8F800BF49922480FC
:1048C000002070476FF0004282EA2000704700002D
:1048D00010F0004148BF4042B0FA80F310FA03F2F2
:1048E000C3F19D030BD051EAC35101EB12205306D3
:1048F00038BF704700F1010008BF20F00100704789
:1049000050EA010C00F113801CF5000F58BFBCF5F4
:10491000000F01D48842704707D710F5000F58BF29
:1049200011F5000F15D488427047894270471CF575
:10493000000F04D5BCF5000FF7D5814270474FF04A
:10494000807C1CEB400F38BF1CEB410F01D2814231
:10495000704710B500F089F8922449004FF00050DC
:104960004FF08051FFF7CABE4FF47F0C1CEAD01203
:104970001EBF1CEAD11392EA0C0F93EA0C0F00F051
:10498000478090EA010F48BF42F480724FF0004C1C
:104990004CEA00204CEA012102EB0302A0FB0113C8
:1049A000A2F50002002918BF43F001035B0028BFF5
:1049B0004FEA330342EB22425FEA132C4CEBC25026
:1049C0002EBFBCEB436FB2F57C0F70474FEA036C10
:1049D000BCF1004F08BF20F00100B2F57C0F38BFDA
:1049E00070470BD582F0FF0212F5803FC8BF7047B9
:1049F00000F1C040D8BF00F00040704700F5000C47
:104A00005FEA4C0C48BF7047B0F1C04000F073B88B
:104A100090EA010F0CEAD11348BF42F4807262455C
:104A200038BF634504D280EA010000F000407047BF
:104A300010B500F01AF800BF8900013E00F007B879
:104A400000F009B85FEA410C5FEA1C6C08D080EA0C
:104A5000010000F050B85FEA400C5FEA1C6CF6D130
:104A60004FF00040A0F5800070470EF1020E2EF0CE
:104A7000030E5EF8044B244204D44FEA4102B2F123
:104A80007F4F11D84FEA4003B3F17F4F0CD80ED1BE
:104A90004FEAD07CB2F17F4F0CEB4C0C0CF1020CC6
:104AA00008BF4CEBD17C04E04FF0080C01E04FEA6A
:104AB000D17C0CEB4C0324FA03F404F00704B4F1AA
:104AC000040C06D20EEB840CBDE810404CF0010C37
:104AD0006047DFE80CF0070802024FF00040A0F545
:104AE000800010BD0846420018BFD2F1807288BF16
:104AF00000F0004010BDFF2141EAD050C0057047D2
:104B000051EA000C00F113801CF5000F58BFBCF5F2
:104B1000000F01D48142704707D711F5000F58BF2D
:104B200010F5000F15D481427047894270471CF57B
:104B3000000F04D5BCF5000FF7D5884270474FF041
:104B4000807C1CEB410F38BF1CEB400F01D2884228
:104B5000704780EA010081EA000180EA0100FFF766
:104B6000F8BE000090EA010F48BF81F000413FF518
:104B70006AAD421A04D882F00042A0EB0200114450
:104B80004FEAD0524FF07F4C1CEA410FA2EBD153B9
:104B900018BF9CEA026F4AD04FF0004C4CEA00204C
:104BA0004CEA012121FA03FCB0EB0C0C0FD412F0FB
:104BB000FE0F36D05FEA4C001DD5001240EBC2500C
:104BC00038BF70471CF03F0F18BF70470BE0A2F1D1
:104BD00001025FEA1C2040EBC25038BF70471CF056
:104BE0007F0F18BF7047C3F12003994014BF401EC8
:104BF00020F00100704780084FEA122308BF704779
:104C0000B0FA80FCA2EB0C02CCF1280C60FA0CF09C
:104C100093EA122F04BF00EBC25070474FEAC370F3
:104C20007047130A5FEADC1008BF7047F6E79CEA9A
:104C3000026F04D010EA5C0F08BF0020704710B567
:104C4000FFF713FF40DFF63E81F0004070470CF0A5
:104C50000F03092B08BF082000F059800A2B0BD046
:104C6000082B18BF704708BF1CF0400F0AD04FF048
:104C700000004FF0000170471CF0400F18BF4FF0CC
:104C8000004070471CF0100F08D020F0704300F077
:104C90007F4242EAD3014FEA4370704700F0604020
:104CA00021F07F4242EA000201F07F4040EA727048
:104CB00070474FF0FF0C4CF4E06C1CEA11531CBF22
:104CC0009CEA030C9445C2BFDA4201EB02517047E3
:104CD000002B0DD0BCF1000F0FD0002A01F00041D5
:104CE000A4BF41F0E04141F07F614FF00000704708
:104CF00001F000414FF00000704750EA01334FF0DF
:104D00009B0C18BF4CF0806C7EF44CAF70471CF4C9
:104D1000801F11D01CF4E02F03D06FEACC31490082
:104D200070474FF04050EFF3008222F0704242EAA9
:104D3000000282F3008870474FF0000070470102C4
:104D400002030405060708090A0B0C0D0E0F1010CC
:104D5000000000000000000001020304060708092B
:104D600000000000010203044FBB610567ACDD3F9A
:104D7000182D4454FB21E93F9BF681D20B73EF3F82
:104D8000182D4454FB21F93FE2652F227F2B7A3CFA
:104D9000075C143326A6813CBDCBF07A8807703CB3
:104DA000075C143326A6913CC4EB98999999C9BF26
:104DB000711623FEC671BCBF6D9A74AFF2B0B3BF5B
:104DC0009AFDDE522DDEADBF2F6C6A2C44B4A2BF1B
:104DD0000D5555555555D53FFF8300922449C23F87
:104DE0006E204CC5CD45B73F513DD0A0660DB13FBB
:104DF000EB0D76244B7BA93F11DA22E33AAD903FCD
:104E00000000000000000000284E00080000002004
:104E1000BC00000028010008E44E0008BC0000208F
:104E20007C0900004401000801000000100000009F
:104E30000000000000127A000000000000000000E6
:104E40000000000000000000000000E04D62503F44
:104E5000000000C07493683F000000E051B89E3F1E
:104E60000000000000000000000000000000000042
:104E70000000000000000000000000000000000032
:104E80000000000000000000000000000000000022
:104E9000000000E04D62503F000000C07493683F86
:104EA000000000E051B89E3F00000000000000003C
:104EB00000000000000000000000000000000000F2
:104EC00000000000000000000000000000000000E2
:104ED0000000000000000000000000000000C842C8
:044EE00000000000CE
:04000005080000ED02
:00000001FF
