:020000040800F2
:10000000400B0020C90100080D400008072B000824
:10001000813D0008CD050008CD4900080000000022
:100020000000000000000000000000005140000837
:100030008106000800000000254000085340000829
:10004000E3010008E3010008E3010008E301000800
:10005000E3010008E3010008E3010008E3010008F0
:10006000E3010008E3010008E3010008E3010008E0
:10007000E3010008E3010008350600084506000812
:10008000E3010008E3010008E3010008E3010008C0
:10009000E3010008E3010008E3010008E3010008B0
:1000A000E3010008D5400008C5400008E30100084E
:1000B000E3010008E3010008E3010008E301000890
:1000C000E3010008E3010008E3010008E301000880
:1000D000E3010008BD490008E3010008E30100084E
:1000E000E3010008E3010008E301000800F002F862
:1000F00000F05AF80AA090E8000C82448344AAF168
:100100000107DA4501D100F04FF8AFF2090EBAE865
:100110000F0013F0010F18BFFB1A43F0010318473B
:10012000F06B0000106C00000A444FF0000C10F857
:10013000013B13F0070408BF10F8014B1D1108BF65
:1001400010F8015B641E05D010F8016B641E01F805
:10015000016BF9D113F0080F1EBF10F8014BAD1C55
:100160000C1B09D16D1E58BF01F801CBFAD505E073
:1001700014F8016B01F8016B6D1EF9D59142D6D3CD
:10018000704700000023002400250026103A28BFF5
:1001900078C1FBD8520728BF30C148BF0B607047F9
:1001A0001FB51FBD10B510BD00F06CF81146FFF76C
:1001B000F7FF05F0B1FA00F08AF803B4FFF7F2FF99
:1001C00003BC00F08DF8000009488047094800474B
:1001D000FEE7FEE7FEE7FEE7FEE7FEE7FEE7FEE7F7
:1001E000FEE7FEE704480549054A064B7047000054
:1001F000C1400008ED00000840050020400B002031
:1002000040070020400700204FF0000200B51346D1
:1002100094469646203922BFA0E80C50A0E80C5026
:10022000B1F12001BFF4F7AF090728BFA0E80C50D7
:1002300048BF0CC05DF804EB890028BF40F8042BD0
:1002400008BF704748BF20F8022B11F0804F18BF3D
:1002500000F8012B704770477047704710B500F0E9
:1002600009F8006810BD10B5044600F003F80460FA
:1002700010BD000000487047E004002000487047AF
:10028000E00400207546FFF7F9FFAE460500694619
:10029000534620F00700854618B020B5FFF7A2FFAF
:1002A000BDE820404FF000064FF000074FF0000877
:1002B0004FF0000B21F00701AC46ACE8C009ACE8F8
:1002C000C009ACE8C009ACE8C0098D46704710B55C
:1002D0000446AFF300802046BDE81040FFF76DBF35
:1002E00001491820ABBEFEE726000200704700005F
:1002F0000021114A1160516010491148C2E90210F1
:1003000010491148C2E904100C491048C2E906100E
:100310000F491048C2E908104FF033310E48C2E9C6
:100320000A100021116351639163D1631164516418
:10033000116551657047000088040020B81E85EBE8
:1003400051B8AE3FFCA9F1D24D62503F51B8BE3F0B
:100350007B14AE47E17AA43F3333D73F2DE9F04712
:1003600086B06C48D0E912106B4AC2E912101046F0
:10037000D0E912633246D0E90041204605F040FF43
:10038000654AC2E90C0163481146D0E90A43D1E944
:1003900004612246304605F00DFD80464FF00052C4
:1003A0005E4B05F007FDCDE904015B48D0E90C6325
:1003B0003246D0E90241204605F0FCFCCDE90201BD
:1003C000DDE9042305F01CFF534AC2E90E01104683
:1003D000D0E90A432246D0E90E61304605F0FCFA26
:1003E000CDE904014C48D0E90A432246049805F0BF
:1003F000F3FA80464848D0E908432246404605F0D3
:10040000D9FC474A03C20022464B454903C905F0BF
:1004100095FC05D200214348414AC2E900100BE097
:100420000022414B3E4903C905F0C2FD04D2002120
:100430003D483B4AC2E90010394903C904F064FE53
:10044000044605F0A9F9CDE900013348D0E9084395
:100450002246D0E90661304605F0BEFA8046DDE965
:10046000002305F0A7FCCDE9020104F085FF4FF061
:1004700000522A4BCDE9040105F09CFC264AC2E952
:1004800010011146D1E91001C2E914011146D1E968
:1004900010410022254B204605F08AFD05D200219F
:1004A00022481D4AC2E914100DE01B480022204BCF
:1004B000D0E91041204605F041FC04D200211C483F
:1004C000154AC2E914101448D0E91443224600200A
:1004D000184905F0C5F9064605F090F91649086077
:1004E00016491548006806F00FF80646144906F04C
:1004F00035F90546134905F099FF044606F0FAF868
:100500000FFA80FA10480068C0F834A006B0BDE8C1
:10051000F0870000D803002088040020DCA54C40B0
:10052000380100200000F0BF0000F03F0000344020
:10053000000034C0004057401C010020000034433C
:100540000000FA440000FA433402002070B504466B
:1005500025461B4829680160696841602989018135
:10056000A97A8172014691F9040006F0DFF8064687
:10057000144905F0C9FF14490860114991F90500B3
:1005800006F0D4F806460F4905F0BEFF0E49486054
:100590000B4991F9060006F0C9F80646094905F02D
:1005A000B3FF09498860064991F9070006F0BEF8D3
:1005B0000646044905F0A8FF0349C86070BD000065
:1005C0009F0300200000C842B803002000BFFEE7E0
:1005D00070B504460D46002C0ADB002204211348A6
:1005E00000F0D4FB01220821104800F0CFFB09E005
:1005F000012204210D4800F0C9FB002208210B480C
:1006000000F0C4FB2A461021084800F0BFFB002C74
:1006100001DB204600E0604204B244F620608442E0
:1006200000DD044602480068846370BD0008014094
:100630003402002010B5024800F0AAF810BD0000F6
:100640000C03002010B5024800F0A2F810BD000015
:100650005003002030B590F840500124AC40C56BE9
:100660006C60046863604468102C04D10468A26064
:100670000468E16003E00468A1600468E26030BDE2
:10068000704772B600BFFEE70146002291F82100D4
:10069000022808D00420886300BF002081F82000D1
:1006A00000BF012070470868006820F00E000B684A
:1006B00018600868006820F001000B68186091F865
:1006C000403001209840CB6B5860012081F8210018
:1006D00000BF002081F8200000BF1046E2E70000C4
:1006E00070B50446002594F82100022803D00420A8
:1006F000A063012548E02068006820F00E00216812
:1007000008602068006820F00100216808601F4927
:100710002068884201D1012026E01C49143120685C
:10072000884201D110201FE01849283120688842F2
:1007300001D1801518E015493C312068884201D16B
:10074000801411E0114950312068884202D14FF4E1
:10075000803009E00D4964312068884202D14FF4AD
:10076000801001E04FF0807008490839486001208E
:1007700084F8210000BF002084F8200000BF606BD7
:1007800010B12046616B8847284670BD08000240C2
:1007900070B50446E06B05682068066894F8401060
:1007A000042088402840002846D006F00400002895
:1007B00042D02068006800F0200028B92068006856
:1007C00020F004002168086057492068884201D160
:1007D000042027E0544914312068884201D1402088
:1007E00020E0514928312068884201D1001519E0E4
:1007F0004D493C312068884202D14FF4804011E0DD
:10080000494950312068884202D14FF4802009E0E4
:10081000454964312068884202D14FF4800001E0EC
:100820004FF08060404908394860E06A00287AD07B
:100830002046E16A884776E094F84010022088401C
:100840002840A0B306F0020088B32068006800F0DA
:10085000200040B92068006820F00A002168086084
:10086000012084F8210030492068884201D102200B
:1008700028E02D4914312068884201D1202021E050
:10088000294928312068884201D140151AE02649BB
:100890003C312068884202D14FF4005012E02249D6
:1008A00050312068884203D14FF400300AE017E04D
:1008B0001D4964312068884202D14FF4001001E0E4
:1008C0004FF0007018490839486000BF002084F8D4
:1008D000200000BFA06A30B32046A16A884722E00A
:1008E00094F84010082088402840E0B106F0080045
:1008F000C8B12068006820F00E002168086094F8F4
:10090000401001208840E16B48600120A06384F81A
:10091000210000BF002084F8200000BF206B10B130
:100920002046216B884770BD080002400146002226
:1009300009B901207047164B0868C01A1423B0FB90
:10094000F3F08000086412480838C863022081F878
:1009500021000868026843F6F0708243D1E9010380
:100960001843CB6818430B6918434B6918438B69CC
:100970001843CB691843024308680260002088636B
:10098000012081F82100002081F8200000BFD1E77C
:10099000080002402DE9F04104460D4616461F4668
:1009A0004FF0000800BF94F82000012802D1022077
:1009B000BDE8F081012084F8200000BF94F82100F8
:1009C00001282CD1022084F821000020A063206897
:1009D000006820F00100216808603B463246294645
:1009E0002046FFF737FEE06A30B12068006840F02B
:1009F0000E00216808600BE02068006820F0040009
:100A0000216808602068006840F00A0021680860DA
:100A10002068006840F001002168086006E000BF1F
:100A2000002084F8200000BF4FF002084046BFE7D6
:100A300070B5044600F0B0F906462546681C10B1B2
:100A400004480078054400BF00F0A6F9801BA842C6
:100A5000FAD370BD080000202DE9F84703460022B4
:100A600094466EE14FF0010808FA02F4D1F80080D4
:100A700008EA0400A0427DD1DFF8DCA2D1F80480AE
:100A8000A8EB0A09D0453AD014DCB8F1030F50D0D6
:100A900009DCB8F1000F31D0B8F1010F1CD0B8F16A
:100AA000020F49D120E0B8F1110F18D0B8F1120FA0
:100AB00042D11EE0B9F5881F25D006DCB9F5803F8C
:100AC00020D0B9F5801F37D11AE0B9F5001F18D032
:100AD000B9F5041F30D117E0D1F80CC02DE0D1F8E2
:100AE0000C8008F1040C28E0D1F80C8008F1080C07
:100AF00023E0D1F80C8008F10C0C1EE000BF00BF11
:100B000000BF00BF00BF00BFD1F80880B8F1000FE0
:100B100002D14FF0040C0BE0D1F80880B8F1010FBE
:100B200003D14FF0080C1C6102E04FF0080C5C612F
:100B300003E04FF0000C00E000BF00BFFF2801D829
:100B4000984601E003F104084646FF2802D84FEA20
:100B5000820803E0A2F108084FEA88084746D6F861
:100B600000804FF00F0909FA07F928EA09080CFA82
:100B700007F900E088E048EA0908C6F80080D1F8E3
:100B8000048008F08058B8F1805F7DD100BFDFF8A5
:100B9000CC81D8F8188048F00108DFF8C091C9F876
:100BA0001880C846D8F8188008F00108CDF80080F1
:100BB00000BF00BF4FEAB9384FEA920958F82950F0
:100BC0004FEA82784FEA18794FF00F0808FA09F8CF
:100BD00025EA0805DFF88881434502D14FF0000877
:100BE00016E0DFF88081434502D14FF001080FE0A5
:100BF000DFF87481434502D14FF0020808E0DFF8C6
:100C00006C81434502D14FF0030801E04FF0040826
:100C10004FEA82794FEA197908FA09F848EA050596
:100C2000DFF84C814FEA920948F82950D1F8048046
:100C300008F48018B8F5801F0AD1DFF83881D8F899
:100C4000008048EA0008DFF82C91C9F8008009E02C
:100C5000DFF82081D8F8008028EA0008DFF8149136
:100C6000C9F80080D1F8048008F40018B8F5001F16
:100C700010D1DFF8008108F10408D8F8008048EAB4
:100C80000008DFF8F09000E05AE009F10409C9F823
:100C900000800DE0DFF8DC8008F10408D8F800805F
:100CA00028EA0008DFF8CC9009F10409C9F80080AF
:100CB000D1F8048008F40038B8F5003F0ED1DFF811
:100CC000B480A8F10408D8F8008048EA0008DFF8EA
:100CD000A490A9F10409C9F800800DE0DFF8948020
:100CE000A8F10408D8F8008028EA0008DFF884900A
:100CF000A9F10409C9F80080D1F8048008F480380B
:100D0000B8F5803F0ED1DFF86C80A8F10808D8F85C
:100D1000008048EA0008DFF85C90A9F10809C9F8EA
:100D200000800DE0DFF84C80A8F10808D8F80080BA
:100D300028EA0008DFF83C90A9F10809C9F800800A
:100D4000521CD1F8008028FA02F8B8F1000F7FF4A5
:100D500089AEBDE8F88700000000111000100240C5
:100D600000080140000C0140001001400014014047
:100D7000080001400804014010B5C26821EA0203DE
:100D800002EA010443EA0443036110BD0AB10161B0
:100D900001E00B04036170470148006870470000E0
:100DA0000000002070B504460CB9012070BD94F815
:100DB0003D0028B9002084F83C00204600F046FBA6
:100DC000242084F83D002068006820F0010021689C
:100DD00008602068006840F40040216808602068CE
:100DE000006820F400402168086000F035FD0546E9
:100DF0005C496068884206D85B48854201D2012080
:100E000007E0002005E05948854201D2012000E0BA
:100E10000020012800D1C9E75548B5FBF0F620684D
:100E2000406820F03F003043216848604D496068C9
:100E3000884201D8701C07E04FF4967070434FF45D
:100E40007A71B0FBF1F0401C2168096A21F03F0182
:100E500008432168086243496068884214D8681EC4
:100E600061684900B0FBF1F0401CC0F30B0004289E
:100E700001D204203DE0681E61684900B0FBF1F03A
:100E8000401CC0F30B0034E0A06838B9681E6168EC
:100E900001EB4101B0FBF1F0401C0AE0681E616803
:100EA00001EBC10202EB0111B0FBF1F0401C40F478
:100EB0008040C0F30B0008B901201AE0A06848B9CF
:100EC000681E616801EB4101B0FBF1F0401CC0F30A
:100ED0000B000CE0681E616801EBC10202EB01111E
:100EE000B0FBF1F0401CC0F30B0040F4804040F434
:100EF00000402168C9694CF6FF729143084321689C
:100F0000C861D4E9070108432168096821F0C001DC
:100F1000084321680860D4E9031008432168896800
:100F200048F2FF329143084321688860D4E9050103
:100F300008432168C96821F0FF0108432168C8609F
:100F40002068006840F001002168086000202064EB
:100F5000202084F83D000020206384F83E0000BF7C
:100F600024E70000A086010080841E0000093D00E7
:100F700040420F002DE9FE4F04460F469046994629
:100F8000DDE90CAB0E9E00200290FFF705FF054641
:100F900094F83D00202872D119230122CE49204621
:100FA000009501F024FF10B10220BDE8FE8F00BFC4
:100FB00094F83C00012801D10220F6E7012084F8D2
:100FC0003C0000BF2068006800F0010028B92068DC
:100FD000006840F00100216808602068006820F483
:100FE000006021680860222084F83D00402084F8D9
:100FF0003E0000202064C4F824A0A4F82AB0608D2C
:101000002085B648E0624B46424639462046CDE947
:10101000006501F099FD08B10120C6E7208D88B96F
:1010200000BF00200190206840690190206880691D
:10103000019000BF00BF2068006840F40070216884
:1010400008604BE0208D01281AD12068006820F448
:1010500080602168086072B600BF0020019020689F
:101060004069019020688069019000BF00BF20683E
:10107000006840F400702168086062B62EE029E143
:10108000208D022819D12068006840F40060216892
:10109000086072B600BF002001902068406901908E
:1010A00020688069019000BF00BF2068006820F4BC
:1010B00080602168086062B610E02068006840F433
:1010C00080602168086000BF0020019020684069AE
:1010D000019020688069019000BF00BFEBE0208D87
:1010E00003287DD8208D012815D12A463146204677
:1010F00001F059FF08B1012057E720680069616AD3
:101100000870606A401C6062208D401E2085608DE2
:10111000401E6085CFE0208D02282CD1334600226E
:101120006F492046009501F062FE08B101203CE7BE
:1011300072B62068006840F400702168086020687A
:101140000069616A0870606A401C6062208D401E00
:101150002085608D401E608562B620680069616AE6
:101160000870606A401C6062208D401E2085608D82
:10117000401E60859FE03346002259492046009575
:1011800001F035FE08B101200FE72068006820F467
:1011900080602168086072B620680069616A087022
:1011A000606A401C6062208D401E2085608D401E5C
:1011B00060854C4800681921B0FBF1F04FF47A715A
:1011C000B0FBF1F0C0EBC00000EB8000029000BF6C
:1011D0000298401E02900298A8B90020206300E007
:1011E00039E0202084F83D00002084F83E00206C87
:1011F00040F02000206462B600BF002084F83C006C
:1012000000BF0120D1E620684069C0F380000028BB
:10121000DED02068006840F4007021680860206813
:101220000069616A0870606A401C6062208D401E1F
:101230002085608D401E608562B620680069616A05
:101240000870606A401C6062208D401E2085608DA1
:10125000401E60852FE02A463146204601F0A3FE5D
:1012600008B10120A1E620680069616A0870606A1F
:10127000401C6062208D401E2085608D401E608570
:1012800020684069C0F38000A8B1208D032805D1F3
:101290002068006820F48060216808602068006988
:1012A000616A0870606A401C6062208D401E208563
:1012B000608D401E6085208D00287FF410AF2020B7
:1012C00084F83D00002084F83E0000BF84F83C0014
:1012D00000BF6AE6022068E6020010000000FFFF7F
:1012E000040001000C0000202DE9FC5F04460F46BD
:1012F00090469946DDE90CAB0E9EFFF74DFD054685
:1013000094F83D0020287DD1192301224D49204623
:10131000009501F06CFD10B10220BDE8FC9F00BFFC
:1013200094F83C00012801D10220F6E7012084F85E
:101330003C0000BF2068006800F0010028B9206868
:10134000006840F00100216808602068006820F40F
:10135000006021680860212084F83D00402084F866
:101360003E0000202064C4F824A0A4F82AB0608DB8
:1013700020853548E0624B46424639462046CDE955
:10138000006501F091FC08B10120C6E731E02A4672
:101390003146204601F04CFE50B1206C042805D1A6
:1013A0002068006840F40070216808600120B4E7FC
:1013B000606A007821680861606A401C6062208D64
:1013C000401E2085608D401E608520684069C0F306
:1013D000800070B1208D60B1606A0078216808617A
:1013E000606A401C6062208D401E2085608D401E1A
:1013F0006085208D0028CAD12A463146204601F05A
:10140000C3FC00E01CE050B1206C042805D120682A
:10141000006840F400702168086001207DE72068C2
:10142000006840F4007021680860202084F83D00C6
:10143000002084F83E0000BF84F83C0000BF6CE749
:1014400002206AE7020010000000FFFF10B586B01E
:101450000446002002900390049005902B492068D8
:10146000884225D100BF2A48806940F008002849F9
:1014700088610846806900F00800019000BF00BF45
:10148000C0200290122003900320059002A9214859
:10149000FFF7E2FA00BF1E48C06940F400101C4983
:1014A000C8610846C06900F40010019000BF2AE03E
:1014B00019492068884226D100BF1548806940F04C
:1014C0000800134988610846806900F0080001900F
:1014D00000BF00BF4FF44060029012200390032031
:1014E000059002A90B48FFF7B7FA00BF0848C0698A
:1014F00040F480000649C8610846C06900F48000D5
:10150000019000BF00BF06B010BD000000540040B5
:1015100000100240000C01400058004003480068E1
:101520000349097808440149086070470000002019
:101530000800002010B50848006840F01000064977
:101540000860032000F0A8F80F2000F007F800F072
:101550002BF8002010BD00000020024070B50446AA
:101560000E4800784FF47A71B1FBF0F00C4909682D
:10157000B1FBF0F5284600F0F9FB08B1012070BD81
:10158000102C07D200222146501E00F047F80548D3
:10159000046001E00120F2E70020F0E708000020ED
:1015A0000C0000200400002008B500BF114880692D
:1015B00040F001000F4988610846806900F0010091
:1015C000009000BF00BF00BF0846C06940F08050D7
:1015D000C8610846C06900F08050009000BF00BF9D
:1015E00000BF0549486820F0E06040F000704860A6
:1015F00000BF08BD0010024000000140014608463F
:10160000002809DB00F01F0301229A4043099B00D8
:1016100003F1E023C3F8002100BF70472DE9F05F1C
:1016200080460D461646002703F0E6F90746394680
:101630002A46334601F00700C0F1070ABAF1040F49
:1016400002D94FF0040A01E0C0F1070AD14600F1C7
:10165000040ABAF1070F02D24FF0000A01E0A0F12C
:10166000030AD4464FF0010A0AFA09FAAAF1010A5C
:101670000AEA020A0AFA0CFA4FF0010B0BFA0CFB09
:10168000ABF1010B0BEA030B4AEA0B04214640467F
:1016900003F0BAF9BDE8F09F00BF00F00702064B67
:1016A00019684FF6FF031940044B0B4343EA02212C
:1016B000014B196000BF70470CED00E00000FA0517
:1016C00070B504460D460CB9012070BD5A4800683B
:1016D00000F00700A8420ED25748006820F007002B
:1016E0002843554908600846006800F00700A842F2
:1016F00001D00120E9E7207800F0020002281DD186
:10170000207800F00400042805D14C48406840F4DB
:10171000E0604A494860207800F00800082805D1B8
:101720004648406840F46050444948604348406837
:1017300020F0F000A168084340494860207800F09C
:10174000010078B36068012806D13C48006800F4C5
:10175000003090B90120B8E76068022806D1374808
:10176000006800F0007040B90120AEE7334800681F
:1017700000F0020008B90120A7E73048406820F0D7
:101780000300616808432D494860FFF705FB0646E2
:1017900009E0FFF701FB801B41F28831884202D942
:1017A000032092E707E02548406800F00C006168DC
:1017B000B0EB810FEDD12048006800F00700A8428F
:1017C0000ED91D48006820F0070028431A49086018
:1017D0000846006800F00700A84201D0012074E725
:1017E000207800F00400042807D11448406820F451
:1017F000E060E168084311494860207800F0080083
:10180000082808D10D48406820F46050216940EA5A
:10181000C1000A49486000F03FF808494968C1F32F
:101820000311074A515CC840064908600648006831
:10183000FFF794FE002048E700200240001002401D
:10184000E06A00080C000020040000200148006845
:10185000704700000C00002000B5FFF7F7FF0449B7
:101860004968C1F30221034A515CC84000BD000031
:1018700000100240F06A000800B5FFF7E7FF0449D6
:101880004968C1F3C221034A515CC84000BD000051
:1018900000100240F06A000870B500210022002408
:1018A00000230020134D696801F00C05F5B1042DEB
:1018B00002D0082D19D101E00F4819E00F4DC1F3F6
:1018C0008346AB5D01F4803555B10A4D6D68C5F3B3
:1018D00040450B4E725D084D5D43B5FBF2F402E0EE
:1018E000084D03FB05F4204602E000BF024800BF9C
:1018F00000BF70BD0010024000127A00CE6A0008DE
:10190000DE6A000800093D00F8B504460CB9012064
:10191000F8BD207800F00100002878D0F848406831
:1019200000F00C0004280CD0F548406800F00C00D2
:10193000082811D1F248406800F48030B0F5803FAB
:101940000AD1EF48006800F4003000285FD06068DA
:1019500000285CD10120DBE700BF6068B0F5803F64
:1019600006D1E748006840F48030E549086028E087
:10197000606858B9E248006820F48030E0490860A7
:101980000846006820F4802008601AE06068B0F51E
:10199000A02F0BD1DA48006840F48020D8490860B5
:1019A0000846006840F4803008600AE0D4480068C7
:1019B00020F48030D24908600846006820F4802076
:1019C000086000BF606888B1FFF7E6F9054606E0E9
:1019D000FFF7E2F9401B642801D9032098E7C848C3
:1019E000006800F400300028F2D010E0FFF7D4F9CE
:1019F000054606E0FFF7D0F9401B642801D9032013
:101A000086E7BF48006800F400300028F2D1207853
:101A100000F00200022857D1B948406800F00C00DD
:101A200050B1B748406800F00C00082818D1B448FD
:101A3000406800F4803098B9B148006800F00200B6
:101A400020B12069012801D0012061E7AC4800687D
:101A500020F0F800616940EAC100A949086033E05C
:101A60002069E8B10120A7490860FFF795F905460C
:101A700006E0FFF791F9401B022801D9032047E750
:101A80009F48006800F002000028F2D09C480068DF
:101A900020F0F800616940EAC1009949086013E04C
:101AA000002098490860FFF777F9054606E0FFF740
:101AB00073F9401B022801D9032029E790480068E8
:101AC00000F002000028F2D1207800F00800082879
:101AD0002DD1A069B8B101208B490860FFF75CF9EE
:101AE000054606E0FFF758F9401B022801D90320FC
:101AF0000EE78348406A00F002000028F2D001207F
:101B000002F092FA13E000207F490860FFF744F9E1
:101B1000054606E0FFF740F9401B022801D90320E3
:101B2000F6E67748406A00F002000028F2D12078FB
:101B300000F00400042873D100277148C06900F048
:101B4000805070B900BF6E48C06940F080506C4949
:101B5000C8610846C06900F08050009000BF00BF17
:101B600001276A48006800F48070B0B967480068CF
:101B700040F4807065490860FFF70EF9054606E0FD
:101B8000FFF70AF9401B642801D90320C0E65F482B
:101B9000006800F480700028F2D000BFE0680128DF
:101BA00006D15748006A40F001005549086227E015
:101BB000E06858B95248006A20F0010050490862B4
:101BC0000846006A20F00400086219E0E068052871
:101BD0000BD14B48006A40F00400494908620846AE
:101BE000006A40F0010008620AE04548006A20F0FF
:101BF0000100434908620846006A20F004000862B8
:101C000000BFE068A0B1FFF7C7F8054609E0FFF79D
:101C1000C3F8401B41F28831884202D9032077E69D
:101C200022E03748006A00F002000028EFD012E0FE
:101C3000FFF7B2F8054608E0FFF7AEF8401B41F2A7
:101C40008831884201D9032062E62D48006A00F0FD
:101C500002000028F0D1012F05D12948C06920F0E9
:101C600080502749C86100BFE069C8B32448406874
:101C700000F00C00082860D0E069022848D100205C
:101C800020490866FFF788F8054606E0FFF784F864
:101C9000401B022801D903203AE61948006800F0E9
:101CA00000700028F2D1206AB0F5803F07D11448B7
:101CB000406820F40030A168084311494860D4E925
:101CC000080108430E49496821F4741108430C497E
:101CD000486001200B490866FFF75EF8054607E0FB
:101CE0003DE0FFF759F8401B022801D903200FE619
:101CF0000348006800F000700028F2D02FE00000D8
:101D00000010024000004242800442420070004045
:101D1000002014490866FFF73FF8054606E0FFF784
:101D20003BF8401B022801D90320F1E50E4800686A
:101D300000F000700028F2D111E0E069012800D124
:101D4000E6E50948466806F48031206A814204D1FC
:101D500006F47011606A814201D00120D8E50020AC
:101D6000D6E50000000042420010024070B5044673
:101D70002546681EB0F1807F01D301200FE0681E68
:101D80004FF0E02148610F214FF0FF3002F03CFEA0
:101D900000204FF0E021886107200861002070BD1D
:101DA0007047704730B502460B4600BF92F83C00C2
:101DB000012801D1022030BD012082F83C0000BF83
:101DC000022082F83D00106844681068816824F0A1
:101DD00070041868044310684460104D1068A842ED
:101DE0000BD01068B0F1804F07D00D4D1068A8429D
:101DF00003D00C4D1068A84205D121F0800158682D
:101E0000014310688160012082F83D0000BF00207E
:101E100082F83C0000BF00BFCDE70000002C01406D
:101E2000000400400008004010B504460CB9012031
:101E300010BD94F83D0028B9002084F83C002046ED
:101E400000F026F8022084F83D00211D206802F0F1
:101E500049F9012084F8460000BF84F83E000121C2
:101E60003F200155402001554120015500BF00BFD2
:101E7000012084F8420043200155442001554520AB
:101E8000015500BF012084F83D000020D0E700008C
:101E900038B504462349206888421ED100BF224835
:101EA000806940F40060204988610846806900F438
:101EB0000060009000BF00BF002211461920FFF70C
:101EC000ADFB1920FFF79AFB002211461A20FFF7FD
:101ED000A5FB1A20FFF792FB23E02068B0F1804FAA
:101EE0000DD100BF1048C06940F001000E49C86123
:101EF0000846C06900F00100009000BF11E00B49E6
:101F0000206888420DD100BF0748C06940F0020038
:101F10000549C8610846C06900F00200009000BF92
:101F200000BF38BD002C01400010024000040040FA
:101F3000014691F83D00012801D0012070470220A0
:101F400081F83D000868C06840F001000B68D86067
:101F5000124B086898420BD00868B0F1804F07D048
:101F60000F4B0868984203D00E4B086898420CD17A
:101F70000868806800F00702062A0CD0086800682C
:101F800040F001000B68186005E00868006840F048
:101F900001000B6818600020D0E70000002C014011
:101FA00000040040000800402DE9F04104460D46C1
:101FB000002700BF94F83C00012802D10220BDE8B0
:101FC000F081012084F83C0000BF022084F83D002D
:101FD0002068866826F0770626F47F4620688660AB
:101FE0002868502833D00CDC202850D004DC00288E
:101FF0004BD0102851D149E0302849D040284CD14D
:1020000039E060282DD0702807D0B0F5805F03D06C
:10201000B0F5005F41D10DE041E0D5E902136A68F7
:10202000206802F0B2F82068866846F077062068DB
:10203000866034E0D5E902136A68206802F0A5F8EA
:102040002068806840F480402168886027E0EA6862
:102050006968206802F06AF95021206802F0A0F84F
:102060001DE0EA686968206802F073F96021206861
:1020700002F096F813E0EA686968206802F056F901
:102080004021206802F08CF809E000BF00BF00BFCB
:102090002968206802F084F801E0012700BF00BF32
:1020A000012084F83D0000BF002084F83C0000BF00
:1020B000384684E7704770B504462068C5682068D4
:1020C000066906F00200022819D105F00200022874
:1020D00015D1401F216808610120207720688069A0
:1020E00000F0030018B12046FFF7E4FF05E02046AA
:1020F00000F0E0F8204600F094F90020207706F088
:102100000400042819D105F00400042815D1C043A7
:1021100021680861022020772068806900F44070FF
:1021200018B12046FFF7C6FF05E0204600F0C2F8D0
:10213000204600F076F90020207706F008000828F5
:1021400019D105F00800082815D1C043216808619D
:10215000042020772068C06900F0030018B12046F1
:10216000FFF7A8FF05E0204600F0A4F8204600F0A5
:1021700058F90020207706F01000102819D105F03A
:102180001000102815D1C04321680861082020776D
:102190002068C06900F4407018B12046FFF78AFF3C
:1021A00005E0204600F086F8204600F03AF90020CD
:1021B000207706F0010048B105F0010030B16FF062
:1021C000010021680861204600F096F906F08000C1
:1021D000802809D105F08000802805D1C0432168FE
:1021E00008612046FFF7DCFD06F04000402809D1D9
:1021F00005F04000402805D1C04321680861204611
:1022000000F0AEF906F02000202809D105F02000EA
:10221000202805D1C043216808612046FFF7C1FD91
:1022200070BD000010B586B00446002002900390F7
:10223000049005902068B0F1804F17D100BF1A4874
:10224000806940F00400184988610846806900F000
:102250000400019000BF00BF032002900220039001
:10226000059002A91148FEF7F7FB1AE01049206813
:10227000884216D100BF0C48806940F004000A492A
:1022800088610846806900F00400019000BF00BF2B
:102290008020029002200390059002A90348FEF7D7
:1022A000DBFB06B010BD000000100240000801403A
:1022B0000004004070472DE9F04104460D461646E3
:1022C000002700BF94F83C00012802D10220BDE89D
:1022D000F081012084F83C0000BF36B1042E1BD0F1
:1022E000082E31D00C2E5ED145E02946206801F041
:1022F00061FF2068806940F00800216888612068DB
:10230000806920F00400216888612068806929695B
:1023100008432168886148E02946206801F07AFF77
:102320002068806940F400602168886120688069C5
:1023300020F480602168886120688069296940EA0A
:1023400001202168886130E02946206801F096FF6D
:102350002068C06940F008002168C8612068C06931
:1023600020F004002168C8612068C0692969084319
:102370002168C86119E02946206801F0B3FF206890
:10238000C06940F400602168C8612068C06920F419
:1023900080602168C8612068C069296940EA01201D
:1023A0002168C86101E0012700BF00BF00BF002015
:1023B00084F83C0000BF384689E710B504460CB9E4
:1023C000012010BD94F83D0028B9002084F83C009D
:1023D000204600F025F8022084F83D00211D2068E9
:1023E00001F080FE012084F8460000BF84F83E0022
:1023F00001213F200155402001554120015500BFDA
:1024000000BF012084F842004320015544200155BB
:102410004520015500BF012084F83D000020D0E791
:102420007047704770B504460D4615B994F83E00E4
:102430000BE0042D02D13F20005D06E0082D02D103
:102440004020005D01E04120005D012801D0012015
:1024500070BD1DB9022084F83E000EE0042D03D1AA
:1024600002213F20015508E0082D03D10221402020
:10247000015502E002214120015501222946206830
:1024800001F072FE19492068884201D1012000E064
:10249000002028B12068406C40F400402168486466
:1024A0001249206888420BD02068B0F1804F07D0D5
:1024B0000F492068884203D00E49206888420CD119
:1024C0002068806800F00706062E0CD0206800689F
:1024D00040F001002168086005E02068006840F0D5
:1024E0000100216808600020B2E70000002C0140D4
:1024F000000400400008004070B50446124800780F
:1025000000B970BD1149206888421BD1104911489B
:1025100001F038FC01F0DCF90F480078401C0E494E
:1025200008700846007814280CD100200870FDF7C8
:1025300015FF0A48006804F0DDF805B201212846BD
:10254000FEF746F800BFDCE718010020002C014030
:10255000D803002044010020400100202001002079
:102560007047F8B504460D46164694F842002028F8
:102570002DD105B10EB90120F8BD01202063002046
:10258000606332462946204602F084F90746206BF4
:10259000012819D100BF0020009020680068009039
:1025A00020684068009000BF00BF00BF00BF2168E6
:1025B0000C3151E8001F41F0100021680C3141E856
:1025C0000002002AF3D100E001273846D4E70220B8
:1025D000D2E7000070B504460D460A4920688842DB
:1025E0000FD109480078AA2806D107484078552815
:1025F00002D10548FDF7AAFF0B2203490348FFF764
:10260000B0FF70BD0038014094030020C4020020D8
:1026100070B50446002520684069C0F3C01594F8E1
:102620004100212817D1B5B100BF00BF2168143186
:1026300051E8001F21F080002168143141E80002B8
:10264000002AF3D100BFA06B10B1A06BFEF71CF8FD
:10265000204602F00FF820684069C0F3801594F816
:102660004200222817D1B5B100BF00BF2168143144
:1026700051E8001F21F040002168143141E80002B8
:10268000002AF3D100BFE06B10B1E06BFDF7FCFF57
:10269000204601F0A9FF002070BD70472DE9F84FDA
:1026A0000446206805682068C668206847694FF0BE
:1026B0000009CA4605F00F09B9F1000F0AD105F06B
:1026C000200038B106F0200020B1204601F0E5FFDF
:1026D000BDE8F88FB9F1000F7BD007F0010018B901
:1026E00006F49070002874D005F0010030B106F4B3
:1026F000807018B1606C40F00100606405F0040067
:1027000030B107F0010018B1606C40F00200606465
:1027100005F0020030B107F0010018B1606C40F024
:102720000400606405F0080048B106F0200010B90C
:1027300007F0010018B1606C40F008006064606C44
:10274000002845D005F0200028B106F0200010B187
:10275000204601F0A2FF20684069C0F3801A606C37
:1027600000F0080010B9BAF1000F2CD0204601F09B
:102770003BFF2068406900F0400000B300BF00BF8D
:102780002168143151E8001F21F040002168143104
:1027900041E80002002AF3D100BFE06B50B1774856
:1027A000E16B4863E06BFDF79BFF88B1E06B416B29
:1027B00088470DE02046FFF770FF09E009E020465A
:1027C000FFF76BFF04E02046FFF767FF002060641F
:1027D0007EE7206B012877D105F01000002873D028
:1027E00006F010000028FAD000BF002000902068FA
:1027F0000068009020684068009000BF00BF20681B
:10280000406900F0400000285FD0E06B006840683D
:102810001FFA80F8B8F1000F55D0A08D404552DD69
:10282000A4F82E80E06B8069202843D000BF00BF51
:1028300021680C3151E8001F21F4807021680C31AF
:1028400041E80002002AF3D100BF00BF00BF2168A9
:10285000143151E8001F21F001002168143141E8D2
:102860000002002AF3D100BF00BF00BF216814316D
:1028700051E8001F21F040002168143141E80002B6
:10288000002AF3D100BF202084F8420000202063FA
:1028900000BF00BF21680C3151E8001F21F010007B
:1028A00021680C3141E80002002AF3D100BFE06B3F
:1028B000FDF7EAFE02206063A08DE28D801A81B2EE
:1028C0002046FFF787FE03E742E0A08DE18D401A26
:1028D0001FFA80F8E08DD0B3B8F1000F37D000BFF9
:1028E00000BF21680C3151E8001F21F4907021686D
:1028F0000C3141E80002002AF3D100BF00BF00BF45
:102900002168143151E8001F21F0010021681431C1
:1029100041E80002002AF3D100BF202084F84200E1
:102920000020206300BF00BF21680C3151E8001F68
:1029300021F0100021680C3141E80002002AF3D197
:1029400000BF0220606341462046FFF743FEBFE61A
:1029500005F0800030B106F0800018B1204601F08B
:10296000FDFFB5E605F0400030B106F0400018B1BB
:10297000204601F06FFEABE600BFA9E6AD440008BB
:1029800010B504460CB9012010BDA06900B100E0EB
:1029900000BF94F8410028B9002084F84000204688
:1029A00000F02AF8242084F841002068C06820F450
:1029B00000502168C860204601F0EEFE20680069E2
:1029C00020F49040216808612068406920F02A00C6
:1029D000216848612068C06840F400502168C860E0
:1029E00000206064202084F8410084F84200002028
:1029F000606300BFC8E7000010B586B00446002041
:102A0000029003900490059037492068884269D16C
:102A100000BF3648806940F48040344988610846E8
:102A2000806900F48040019000BF00BF00BF0846ED
:102A3000806940F0040088610846806900F0040065
:102A4000019000BF00BF48150290022003900320B0
:102A5000059002A92648FDF7FFFF4FF48060029021
:102A600000200390049002A92148FDF7F5FF2148BA
:102A7000214908601020486000211F4881608021A2
:102A8000C1600021016141618161C161FDF74EFFBB
:102A900008B1FDF7F6FD00BF1748A063446200BF10
:102AA000144814301549086000204860002113487C
:102AB00081608021C1600021016141618161C1614A
:102AC000FDF734FF08B1FDF7DCFD00BF0B48E06304
:102AD000446200BF002211462520FEF79FFD2520FD
:102AE000FEF78CFD06B010BD00380140001002401A
:102AF00000080140440002400C0300205003002065
:102B000070477047704700BFFEE70146086840699C
:102B1000C0F38020B0B16FF480600A68506100207B
:102B20000863202081F83D00002081F83E00086CF9
:102B300040F00400086400BF002081F83C0000BFA2
:102B4000012070470020FCE72DE9F84304460F46BA
:102B500015469946DDE908862068006840F48060E3
:102B6000216808602068006840F48070216808606F
:102B7000434600224FF001112046009600F037F93D
:102B800060B12068006800F48070B0F5807F02D1E9
:102B90004FF4007020640320BDE8F88307F0FE00C6
:102BA00021680861334642463E49204600F07EF9DE
:102BB00008B10120F0E700BF0020009020684069C4
:102BC000009020688069009000BF00BF32464146F7
:102BD000204600F02DFA50B1206C042805D1206861
:102BE000006840F40070216808600120D4E7B9F162
:102BF000010F03D1E8B22168086117E0C5F307208F
:102C00002168086132464146204600F011FA50B171
:102C1000206C042805D12068006840F40070216809
:102C200008600120B8E7E8B22168086132464146F1
:102C3000204600F0FDF950B1206C042805D1206831
:102C4000006840F40070216808600120A4E7206853
:102C5000006840F4807021680860434600224FF00D
:102C600001112046009600F0C2F858B120680068B3
:102C700000F48070B0F5807F02D14FF400702064C2
:102C8000032089E7F8B240F001002168086133466B
:102C900042460449204600F009F908B101207BE7CB
:102CA000002079E7020001002DE9F8430446884638
:102CB00015469946DDE908672068006840F4807091
:102CC00021680860334600224FF00111204600972A
:102CD00000F08DF860B12068006800F48070B0F5F5
:102CE000807F02D14FF4007020640320BDE8F88398
:102CF00008F0FE00216808613B4632462149204623
:102D000000F0D4F808B10120F0E700BF00200090E7
:102D100020684069009020688069009000BF00BF73
:102D20003A463146204600F083F950B1206C042821
:102D300005D12068006840F4007021680860012017
:102D4000D4E7B9F1010F03D1E8B22168086117E0B7
:102D5000C5F30720216808613A463146204600F055
:102D600067F950B1206C042805D12068006840F450
:102D70000070216808600120B8E7E8B221680861A6
:102D80000020B3E70200010070B504460D46164668
:102D900025E02046FFF7B9FE08B1012070BD681C90
:102DA000E8B1FDF7F9FF801BA84200D8BDB9206843
:102DB0004069C0F3800090B900202063202084F88F
:102DC0003D00002084F83E00206C40F0200020648C
:102DD00000BF002084F83C0000BF0120DEE720682F
:102DE0004069C0F380000028D3D00020D6E72DE949
:102DF000F04104460D4617461E46DDF8188038E0BF
:102E0000701CA8B3FDF7C8FFA0EB0800B04200D8C3
:102E100076BBC5F3074001280AD120684069A9B2F2
:102E20000840A9B2884201D101200BE0002009E04E
:102E300020688069A9B20840A9B2884201D1012066
:102E400000E00020B84214D100202063202084F844
:102E50003D00002084F83E00206C40F020002064FB
:102E600000BF002084F83C0000BF0120BDE8F081D5
:102E7000FFE7C5F3074001280AD120684069A9B2DD
:102E80000840A9B2884201D101200BE0002009E0EE
:102E900020688069A9B20840A9B2884201D1012006
:102EA00000E00020B842ABD00020DFE72DE9F04180
:102EB00004460D4616461F4658E020684069C0F398
:102EC0008020E8B12068006840F400702168086044
:102ED0006FF480602168486100202063202084F81E
:102EE0003D00002084F83E00206C40F00400206487
:102EF00000BF002084F83C0000BF0120BDE8F08145
:102F0000701C90B3FDF748FFC01BB04200D866BBF1
:102F1000C5F3074001280AD120684069A9B20840DA
:102F2000A9B2884201D101200BE0002009E020680D
:102F30008069A9B20840A9B2884201D1012000E00D
:102F4000002090B900202063202084F83D0000205C
:102F500084F83E00206C40F02000206400BF002078
:102F600084F83C0000BF0120C8E7FFE7C5F3074035
:102F700001280AD120684069A9B20840A9B2884254
:102F800001D101200BE0002009E020688069A9B28E
:102F90000840A9B2884201D1012000E000200028A9
:102FA0008BD00020AAE770B504460D46164637E0E0
:102FB00020684069C0F30010A0B16FF010002168D4
:102FC000486100202063202084F83D00002084F820
:102FD0003E00206C206400BF002084F83C0000BF4D
:102FE000012070BDFDF7D8FE801BA84200D8BDB9F6
:102FF00020684069C0F3801090B900202063202031
:1030000084F83D00002084F83E00206C40F0200051
:10301000206400BF002084F83C0000BF0120E0E7EE
:1030200020684069C0F380100028C1D00020D8E794
:1030300070B504460D46164625E02046FFF765FDAF
:1030400008B1012070BD681CE8B1FDF7A5FE801B2A
:10305000A84200D8BDB920684069C0F3C01090B93B
:1030600000202063202084F83D00002084F83E00EA
:10307000206C40F02000206400BF002084F83C0059
:1030800000BF0120DEE720684069C0F3C0100028BF
:10309000D3D00020D6E700000FB59FB0FE480168EE
:1030A000006803F05BFB1390FC480168FA48006875
:1030B00003F054FB1290FA480168F748006803F0E7
:1030C0004DFB1190F5480168006803F047FB109034
:1030D000F4480168F148006803F040FB0F90F048A5
:1030E0000168006803F03AFB0E90EE480168EC4876
:1030F000006803F033FB0D90EA480168006803F0B4
:103100002DFB0C902499229803F028FB0A90259916
:1031100003F024FB00210B9003F0B8FA01D123B097
:1031200000BD2599084603F019FB0690249908462E
:1031300003F014FB04902299084603F00FFB039060
:10314000049903F073F90590069903F06FF907905D
:1031500003F040F9CDE9080102F0F8FACDE90A01DF
:1031600002F04CFB1E901E99229803F0CDF922909C
:103170001E99249803F0C8F924901E99259803F00D
:10318000C3F9259011990F9803F0B4FB4FF08041DB
:103190000B9003F0E3FA1D900D99129803F046F995
:1031A0004FF080410B9003F0D9FA1C9010991398BE
:1031B00003F0A0FB0A900E9903F09CFB0B900C9976
:1031C00003F034F91B901C99259803F0C7FA0B9073
:1031D0001B99249803F0C2FA0A900B9903F08AFB1A
:1031E0001A901B99229803F0B9FA0B901D99259813
:1031F00003F0B4FA0A900B9903F07CFB19901D9927
:10320000249803F0ABFA0B901C99229803F0A6FACD
:103210000A900B9903F06EFB1890A3491A9803F0DB
:103220009DFA0B90A14801680B9803F0FFF89F49A5
:1032300008609D49199803F091FA0B909C48016829
:103240000B9803F0F3F89A4908609749189803F02F
:1032500085FA0B90974801680B9803F0E7F89549B9
:10326000086095481A9903F079FA0A901F9903F0BB
:10327000DDF80B908D4801680B9803F0D7F81F908C
:103280008D48199903F06AFA0A90209903F0CEF854
:103290000B90874801680B9803F0C8F82090864887
:1032A000189903F05BFA0A90219903F0BFF80B908C
:1032B000804801680B9803F0B9F8219076480068BF
:1032C0001790764800681690754800681590754804
:1032D000006814902199149803F040FA09902099FD
:1032E000159803F03BFA0790169880F0004005907F
:1032F0001F9903F033FA0690079903F0FBFA089040
:10330000099903F0F7FA6D490A9003F027FA0B9038
:10331000614801680B9803F089F85F4908602099BB
:10332000149803F01BFA09902199159803F016FAE6
:10333000079017991F9803F011FA0690079903F068
:1033400075F80890099903F0D5FA5C490A9003F0E2
:1033500005FA0B90514801680B9803F067F84F4944
:10336000086014991F9803F0F9F9099021991698AB
:1033700003F0F4F907902099179803F0EFF90690FD
:10338000079903F0B7FA0890099903F04FF84B49F1
:103390000A9003F0E3F90B90414801680B9803F0A1
:1033A00045F83F49086015991F9803F0D7F909902F
:1033B0002099169803F0D2F907902199179803F0F5
:1033C000CDF90690079903F031F80890099903F0B8
:1033D00091FA3A490A9003F0C1F90B90314801681B
:1033E0000B9803F023F82F4908600846016800682D
:1033F00003F0B4F906902A480168006803F0AEF9BA
:10340000049026480168006803F0A8F90290224859
:103410000168006803F0A2F90190029903F006F830
:103420000390049903F002F80590069902F0FEFF5C
:10343000079002F0CFFFCDE9080102F087F9CDE94E
:103440000A0102F0DBF91E9013481E99006803F090
:103450005BF81149086011481E99006803F054F8A0
:103460000E4908600E481E99006803F04DF80C499B
:1034700008600C481E99006803F046F80949086086
:10348000084601684FF0804003F068F90190054854
:103490000168019814E00000FC00002000010020F9
:1034A00004010020080100206F12033C0C010020E1
:1034B0001001002014010020000020416F12833A07
:1034C00003F04CF90390674801684FF0404003F067
:1034D00045F9019063480168019803F03FF90290B3
:1034E000039903F007FA4FF07E51049002F09EFF1B
:1034F000059002F06FFFCDE908015B4801684FF0CD
:10350000804003F02BF9029058480168029803F0BC
:1035100025F90490564801684FF0804003F01EF9E9
:10352000029050480168029803F018F9039004993A
:1035300002F07CFF059002F04DFFCDE90601DDE9C8
:10354000082302F029F84FF066324A4BCDE90A0110
:1035500002F030FC269A03C2434801684FF08040D5
:1035600003F0FCF804903F480168049803F0F6F873
:1035700006903F4801684FF0404003F0EFF8049098
:103580003A480168049803F0E9F80590069902F0BA
:103590004DFF079002F01EFFCDE9080101F0B4FDD8
:1035A0004FF06632334BCDE90A0102F003FC279A53
:1035B00003C22C4801684FF0804003F0CFF801901F
:1035C00028480168019803F0C9F803902848016869
:1035D0004FF0404003F0C2F801902548016801987F
:1035E00003F0BCF80290039903F084F94FF07E5188
:1035F000049002F01BFF059002F0ECFECDE90801FB
:10360000194801684FF0804003F0A8F8029018486C
:103610000168029803F0A2F80490124801684FF084
:10362000804003F09BF8029010480168029803F074
:1036300095F80390049902F0F9FE059002F0CAFE95
:10364000CDE90601DDE9082301F0A6FF4FF066325F
:10365000084BCDE90A0102F0ADFB289A03C200BF76
:103660005DE5000004010020FC00002008010020AE
:103670000001002066A64C4012B1012A18D10BE0CF
:1036800011B1012906D102E00023037002E00223F8
:10369000037000BF00BF0BE011B1012906D102E0A9
:1036A0000323037002E00123037000BF00BF00BFCB
:1036B00000BF70472DE9F04F97B0824616461F466F
:1036C000DDE92245DAE908B35A46DDE9200102F0D6
:1036D00097FDCDE9140120462946DDE9142302F0C7
:1036E00069FBCDE90801DAE906B35A4602F0B8F8F9
:1036F000CAE90601DAE910B35A462046294602F023
:1037000059FBCDE90001DAE90CB35A4602F078FD25
:10371000CDE90201DAE90EB35A4602F071FDCDE9B6
:103720000401DAE900B35A4602F09AF822462B4621
:10373000CDE9060102F03EFBCDE90801DAE90AB362
:103740005A4602F08DF8CAE90A01DAE910B35A467E
:103750002046294602F02EFBCDE90801DAE90CB338
:103760005A4602F05BFCCAE90C01DAE910B35A468A
:103770002046294602F01EFBCDE90801DAE90EB326
:103780005A4602F04BFCCAE90E0122462B46DAE902
:1037900002B1584602F00EFBCDE90801DAE910B398
:1037A0005A4602F05DF8CAE91001DAE904B3DAE931
:1037B0000A015A46CDE9080102F052F880468946CE
:1037C00042464B46DAE90AB1584602F005F9CDE91E
:1037D000100142464B46DAE90EB1584602F0FCF8B9
:1037E000CDE91201DAE906B35A463046394602F00D
:1037F00007FDCDE90E01DDE90F3B58460E9A119900
:1038000002F0D8FACDE90801DAE906B35A4602F027
:1038100027F8CAE90601DDE912B15846DDE90E23B1
:1038200002F0C8FACDE90801DAE908B35A4602F015
:1038300017F8CAE90801DAE90A01CDE90C01DAE969
:103840000C01CDE90A01DDE910B15846DDE90C2390
:1038500002F0B0FACDE90801DAE90AB35A4602F0FB
:10386000DDFBCAE90A01DDE910B15846DDE90A23AA
:1038700002F0A0FACDE90801DAE90CB35A4602F0E9
:10388000CDFBCAE90C01DDE912B15846DDE90C2394
:1038900002F090FACDE90801DAE90EB35A4602F0D7
:1038A000BDFBCAE90E01DDE912B15846DDE90A2384
:1038B00002F080FACDE90801DAE910B35A4602F0C5
:1038C000ADFBCAE91001DAE9060117B0BDE8F08FD7
:1038D00030B500240EE0184B1B7A234103F001029F
:1038E000164B1B7A234103F00101154B1819FFF702
:1038F000C3FE641C082CEEDB002410E00E4B5B7A48
:10390000234103F001020D4B5B7A234103F00101D7
:103910000B4B04F108055819FFF7AEFE641C082C88
:10392000ECDB054805490A6802604A6842600A897A
:103930000281897A817230BDAA0300209F03002092
:10394000C80300201FB50446284800880121284AE2
:103950000B46CDE9002102907522D0212046FDF7CB
:1039600009FB2348007868283ED1002003901F48B7
:103970000088012103AA0B46CDE9002102906B22A9
:10398000D0212046FDF7B0FC07200390174800889F
:10399000012103AA0B46CDE9002102901922D02172
:1039A0002046FDF7A1FC002003901048008801216B
:1039B00003AA0B46CDE9002102901C22D02120460B
:1039C000FDF792FC0020039008480088012103AA1B
:1039D0000B46CDE9002102901B22D0212046FDF7A5
:1039E00083FC002004B010BD0120FBE71000002084
:1039F000F800002008B500BF0E48406940F0010003
:103A00000C4948610846406900F00100009000BF81
:103A100000BF002211460E20FDF700FE0E20FDF72C
:103A2000EDFD002211460F20FDF7F8FD0F20FDF7F8
:103A3000E5FD08BD0010024000B585B000200190F2
:103A400002900390049000BF2C48806940F0100061
:103A50002A4988610846806900F01000009000BF84
:103A600000BF00BF0846806940F02000886108461A
:103A7000806900F02000009000BF00BF00BF084632
:103A8000806940F0040088610846806900F0040005
:103A9000009000BF00BF00BF0846806940F00800EA
:103AA00088610846806900F00800009000BF00BFF0
:103AB00000224FF400511248FDF768F901227C21E1
:103AC0001048FDF763F94FF4005001900120029077
:103AD000002003900320049001A90948FCF7BCFFD3
:103AE0007C2001900120029003900220049001A903
:103AF0000448FCF7B1FF05B000BD00000010024013
:103B0000001001400008014010B50B480B49086047
:103B10000B484860002109488160C1604FF4804132
:103B20000161002141618161C1610162FDF73AF9E2
:103B300008B1FCF7A6FD10BD005400404401002070
:103B4000801A060010B50B480B4908600B48486006
:103B5000002109488160C1604FF48041016100216A
:103B600041618161C1610162FDF71CF908B1FCF797
:103B700088FD10BD0058004098010020A08601007B
:103B800000B587B000200390049005900690019046
:103B900002901548154908604720486000211348E5
:103BA000816040F2E731C1600021016141618161C2
:103BB000FEF73AF908B1FCF764FD4FF4805003902A
:103BC00003A90A48FEF7F0F908B1FCF75AFD0020F6
:103BD0000190029001A90548FEF7E4F808B1FCF74E
:103BE00050FD07B000BD0000002C0140EC0100209A
:103BF00000B58DB0002009900A900B900C900790B2
:103C000008901C216846FCF7FFFA4FF080402449D9
:103C100008604720486000212148816044F61F6108
:103C2000C1600021016180218161FEF7FDF808B1CA
:103C3000FCF727FD4FF48050099009A91848FEF7BA
:103C4000B3F908B1FCF71DFD1548FEF7B6FB08B146
:103C5000FCF717FD00200790089007A91048FEF711
:103C6000A1F808B1FCF70DFD602000900020019044
:103C700002900490002269460948FEF71CFB08B137
:103C8000FCF7FFFC042269460548FEF714FB08B167
:103C9000FCF7F7FC0248FEF7C5FA0DB000BD0000C6
:103CA0003402002000B58DB0002009900A900B90DE
:103CB0000C90079008901C216846FCF7A5FA204854
:103CC000204908600920486000211E48816044F6B0
:103CD0001F61C1600021016180218161FEF7A4F8AC
:103CE00008B1FCF7CEFC4FF48050099009A91548A3
:103CF000FEF75AF908B1FCF7C4FC1248FEF75DFB69
:103D000008B1FCF7BEFC00200790089007A90D48F9
:103D1000FEF748F808B1FCF7B4FC602000900020E2
:103D2000019002900490042269460648FEF7C3FA07
:103D300008B1FCF7A6FC0348FEF774FA0DB000BD0D
:103D4000000400407C02002010B50B480B490860BD
:103D50004FF4E1304860002108488160C160016192
:103D60000C21416100218161C161FEF709FE08B1AA
:103D7000FCF787FC10BD000000380140C4020020A1
:103D800000BFFEE72DE9F04F8DB083468A4691488B
:103D900000880E2109AA0123CDE9002102903B22CF
:103DA000D0215846FDF7E6F89DF825009DF824102F
:103DB00040EA012000B2AAF800009DF827009DF813
:103DC000261040EA012000B2AAF802009DF829005E
:103DD0009DF8281040EA012000B2AAF804009DF8DE
:103DE0002B009DF82A1040EA012000B208909DF8AF
:103DF0002D009DF82C1040EA012000B2AAF8200006
:103E00009DF82F009DF82E1040EA012000B2AAF87C
:103E100022009DF831009DF8301040EA012000B2E8
:103E2000AAF82400089801F05EFF804600226A4B41
:103E300001F0D2FD0646694A694B01F011FD0446C6
:103E400001F0DCFCCAF84000BAF9000002F06EFC98
:103E50000546644902F082FC044602F0BBFACAE956
:103E60000201BAF9020002F061FC05465D4902F068
:103E700075FC044602F0AEFACAE90401BAF904007E
:103E800002F054FC0746574902F068FC044602F071
:103E9000A1FA0546544A554B01F09EFDCAE90601B8
:103EA000BAF9200002F042FC0546514902F056FCE6
:103EB000044602F08FFACAE90A01BAF9220002F0B8
:103EC00035FC05464A4902F049FC044602F082FAF4
:103ED000CAE90C01BAF9240002F028FC054644495D
:103EE00002F03CFC044602F075FACAE90E014FF0FC
:103EF0002042404BDAE90E41204601F0B1FCCAE90C
:103F00000E014FF020423C4BDAE90E41204602F010
:103F10004FF80DD24FF02042384BDAE90E412046DF
:103F200001F00CFF04D20021CAF83810CAF83C1086
:103F3000002106910791DAE90621104601F05EFCA6
:103F40000446DAE90421104601F058FC0546DAE996
:103F50000221104601F052FC0646DAE90E21104615
:103F600001F04CFC0746DAE90C21104601F046FC52
:103F70008046DAE90A21104601F040FC814606AA93
:103F80000AF150000AF158013346CDE90054CDE959
:103F9000030202913A4641464846FFF77DF84FF04A
:103FA0000052174BDAE90A61304601F003FF04467C
:103FB0000D464FF060401349CDE90045CDE90201BF
:103FC0001148DDE90623FFF775FBCAE912010DB0C0
:103FD000BDE8F08F1000002000407540A4703D0A3D
:103FE000D7434240CCCC1C3A82435B06852EF23F3D
:103FF000CB9F8B3969DEB1BF69DE91BF69DE913F2E
:10400000DCA54C404D62503F2000002000BFFEE781
:1040100070B504AC70CC0160426083600662C4601D
:10402000056170BD7047000008B508490968C908F6
:104030004FF47A72B1FBF2F14143009100BF00BF2F
:1040400000994A1E00920029F9D108BD0C000020F9
:10405000704710B5FDF762FA10BD00B58FB028218A
:1040600005A8FCF7D1F814216846FCF7CDF801202B
:10407000059000040690002007900120099002207E
:104080000C90C1030D914FF4E0110E9105A8FDF7BE
:104090003BFC08B1FCF7F5FA0F20009002200190DC
:1040A000002002904FF480600390002004900221D1
:1040B0006846FDF705FB08B1FCF7E3FA0FB000BD59
:1040C0007047000010B50248FDF7F5FF10BD000075
:1040D000EC01002010B50248FDF7EDFF10BD000017
:1040E000EC01002010B502681C4B984208D0B0F1DA
:1040F000804F05D01A4B984202D01A4B984203D1F8
:1041000022F070024B681A43144B984208D0B0F169
:10411000804F05D0124B984202D0124B984203D1E7
:1041200022F44072CB681A4322F080034C6943EAC0
:10413000040202608B68C3620B688362074B98427B
:1041400001D10B69036301234361036903F0010398
:104150001BB1036923F00103036110BD002C014072
:10416000000400400008004030B501F01F050124A4
:1041700004FA05F3046A9C430462046A01F01F0513
:1041800002FA05F52C43046230BD30B50C46816857
:1041900021F47F4142EA032525432943816030BD54
:1041A0000A46816821F0700142F0070319438160DB
:1041B0007047000030B5026A056A25F00105056206
:1041C0004368846924F0700424F003040D682C43D0
:1041D00022F002028D682A430D4DA84206D100BF8D
:1041E00022F00802CD682A4322F00402084DA842BA
:1041F00007D123F4807323F400734D692B438D6939
:104200002B43436084614D684563026230BD00000A
:10421000002C014030B5026A056A25F010050562E0
:104220004368846924F4E04424F440740D6844EA4B
:10423000052422F020028D6842EA05120E4DA842A4
:1042400007D100BF22F08002CD6842EA051222F0B9
:104250004002094DA84209D123F4806323F400638E
:104260004D6943EA85038D6943EA850343608461B0
:104270004D688563026230BD002C014030B5026A92
:10428000056A25F4807505624368C46924F07004EA
:1042900024F003040D682C4322F400728D6842EA76
:1042A00005220F4DA84207D100BF22F40062CD685D
:1042B00042EA052222F48062094DA84209D123F482
:1042C000805323F400534D6943EA05138D6943EA93
:1042D00005134360C4614D68C563026230BD0000D0
:1042E000002C014030B5036A056A25F4805505624B
:1042F0004468C26922F4E04222F440720D6842EA46
:10430000052223F400538D6843EA0533064DA84285
:1043100004D124F480444D6944EA85144460C261A8
:104320004D680564036230BD002C014030B50B467A
:104330001446026A056A25F001050562816921F0CB
:10434000F00141EA041122F00A021A43816102627B
:1043500030BD30B50B461446026A056A25F01005DB
:104360000562816921F4704141EA043122F0A00222
:1043700042EA03128161026230BD00000EB52C4892
:10438000FDF7D6FD00212B48FEF74CF80421294803
:10439000FEF748F804212848FEF744F800210846B3
:1043A000FCF716F90B2225492548FEF7DAF816E046
:1043B0004FF400512348FCF7DFFC23480088B0F598
:1043C0007A7F04D14FF4FA601F49088003E04FF46C
:1043D0007A701D49088040F2F310FCF729FB1B4856
:1043E000FFF7B0FA0028E3D140F2E730FCF720FBFA
:1043F00017481849184A0023CDE900210290174AAE
:104400004FF07E511648FFF703FE11481549164A32
:104410000023CDE900210290144A13491448FFF704
:10442000F7FDFBF765FF0120124908700EBD000083
:10443000EC010020340200207C02002094030020C4
:10444000C4020020001001401000002044010020A0
:104450006F12033B000020410000A040CDCC4C3F38
:104460003804002000401C4600409C450000FA43F0
:10447000600400201801002010B500224FF4005104
:104480000748FCF783FC0748406C38B10548FEF745
:10449000BFF80B2204490348FEF763F810BD000083
:1044A00000100140C40200209403002070B50546AE
:1044B0006C6A0020E085E0842046FEF7EEF870BDCF
:1044C00070B506460025746A20684069C0F3C015BF
:1044D00094F84100212805D125B10020E084204630
:1044E00000F0C8F820684069C0F3801594F84200D5
:1044F000222805D125B10020E085204600F074F87F
:10450000606C40F0100060642046FEF7C6F870BD95
:1045100070B505466C6A2868006800F02000002825
:1045200042D1E08500BF00BF21680C3151E8001F77
:1045300021F4807021680C3141E80002002AF3D197
:1045400000BF00BF00BF2168143151E8001F21F0F7
:1045500001002168143141E80002002AF3D100BFB4
:1045600000BF00BF2168143151E8001F21F0400056
:104570002168143141E80002002AF3D100BF202055
:1045800084F84200206B01280ED100BF00BF2168D3
:104590000C3151E8001F21F0100021680C3141E876
:1045A0000002002AF3D100BF00206063206B0128C5
:1045B00004D1A18D2046FEF70DF802E02046FEF75B
:1045C0009FFA70BD70B505466C6A01206063206B70
:1045D000012805D1A08D41082046FDF7FBFF02E030
:1045E0002046FEF78EFA70BD00BF00BF02680C3295
:1045F00052E8002F22F4907102680C3242E8001356
:10460000002BF3D100BF00BF00BF0268143252E894
:10461000002F22F001010268143242E80013002B3F
:10462000F3D100BF016B01290ED100BF00BF0268AA
:104630000C3252E8002F22F0100102680C3242E8DE
:104640000013002BF3D100BF202180F8421000217D
:104650000163704710B504462068C06820F0400030
:104660002168C860202084F841002046FEF74AFAFD
:10467000002010BD00BF00BF02680C3252E8002FBE
:1046800022F0C00102680C3242E80013002BF3D183
:1046900000BF202180F841107047F8B5044694F817
:1046A0004200222875D1A068B0F5805F0CD1206946
:1046B00050B90025A66A20684068C0F30800308021
:1046C000A06A801CA06215E0A56A0026A068B0F56B
:1046D000805F03D0A06828B9206918B920684068B5
:1046E000287004E02068406800F07F002870A06A0D
:1046F000401CA062E08D401E80B2E085002846D1BB
:104700002068C06820F020002168C8602068C06868
:1047100020F480702168C8602068406920F00100A2
:1047200021684861202084F8420000206063206BEB
:10473000012826D10020206300BF00BF21680C3172
:1047400051E8001F21F0100021680C3141E80002FF
:10475000002AF3D100BF2068006800F01000102884
:104760000AD100BF002000902068006800902068F7
:104770004068009000BF00BFA18D2046FDF72AFFD2
:1047800002E02046FEF7BCF90020F8BD01E0002061
:10479000FBE70220F9E7000070B5044621680969CB
:1047A00021F44051E2681143226811612269A16835
:1047B0001143626941EA02052168C96841F20C624D
:1047C000914329432268D1602168496921F44071ED
:1047D000A2691143226851612D4A2168914202D198
:1047E000FDF74AF801E0FDF737F800EBC00101EBF7
:1047F000001162689200B1FBF2F100EBC00202EB23
:10480000001263689B00B2FBF3F26423B2FBF3F285
:1048100002EBC20303EB0212A1EB8201322202EB94
:1048200001116422B1FBF2F101F0F00100EBC002D2
:1048300002EB001263689B00B2FBF3F26423B2FB4D
:10484000F3F201EB021200EBC00101EB001163680F
:104850009B00B1FBF3F100EBC00303EB00136668B0
:10486000B600B3FBF6F36426B3FBF6F303EBC30623
:1048700006EB0313A1EB8301322303EB0111642345
:10488000B1FBF3F101F00F0111442268916070BD9A
:104890000038014077B581B0044615460298A06201
:1048A000A58500206064222084F842002848E16B3E
:1048B00088622848E16BC8622748E16B08630020E2
:1048C000E16B486302AE32682368191D2B46E06B2A
:1048D000FCF760F800BF002000902068006800909E
:1048E00020684068009000BF00BF206970B100BF21
:1048F00000BF21680C3151E8001F41F4807021682D
:104900000C3141E80002002AF3D100BF00BF00BF14
:104910002168143151E8001F41F001002168143171
:1049200041E80002002AF3D100BF00BF00BF2168A8
:10493000143151E8001F41F040002168143141E872
:104940000002002AF3D100BF002004B070BD0000B7
:1049500011450008C5450008C1440008014691F80A
:104960004100212828D18868B0F5805F0BD1086903
:1049700048B90A6A1088C0F308000B685860086AD2
:10498000801C086205E00B6A581C086218780B68E6
:104990005860C88C401E80B2C88458B90868C06886
:1049A00020F080000B68D8600868C06840F04000C4
:1049B0000B68D860002070470220FCE710B5024861
:1049C000FDF76CFE10BD0000C402002000BFFEE732
:1049D000490050EAC12018BF04204A0D18BF40F01A
:1049E000010040F2FF72B2EB515F08BF40F00200DD
:1049F000012808BF0520704702480068C0F3022064
:104A0000704700000CED00E010B5002804DB0A0739
:104A1000130E054A135406E00A07140E034A00F069
:104A20000F031B1FD45410BD00E400E018ED00E09C
:104A30002DE9F74F144694B00021C4E902111599ED
:104A4000079121F00045C9498D4206DC1599C4E95A
:104A5000000117B00020BDE8F08FC549DFF814A3AE
:104A6000A9423CDD0799C44E0029C44FC44A159998
:104A7000534619DD01F0C4FB554506D0C14AC24B6F
:104A800001F0BEFBC4E900010AE04FF0D352BE4B77
:104A900001F0B6FB32463B4601F0B2FBC4E900012F
:104AA00017B00120BDE8F08F00F0DAFE554506D0C2
:104AB000B44AB54B00F0D4FEC4E900010AE04FF05F
:104AC000D352B14B00F0CCFE32463B4600F0C8FE5C
:104AD000C4E9000117B04FF0FF30BDE8F08FAB49DB
:104AE000A942159978DB21F0004183468846A84AFF
:104AF000A84B01F05FF90022A74B00F0B1FE01F0D6
:104B0000C3F8099001F0EFF806460F469C4A534659
:104B100001F050F943465A4601F080FA80468A4631
:104B2000984A994B3046394601F044F92A0D01253F
:104B30000B924246534601F071FA032DC4E900017D
:104B400039D00B98C1F30A51401A05EB45111139C0
:104B5000814230DA9148C346784400EB0510CDF825
:104B60000CA00C90D0E900233046394601F022F920
:104B700002460B46049106905846039901F040FB0B
:104B800080468A4602460B465846039901F038FB98
:104B9000049B069A01F034FB83460C980391394636
:104BA000D0E90223304601F005F95A46039B01F093
:104BB00027FB6D1CBDE707980028A2BF099817B016
:104BC000BDE8F08F616881F000416160099817B01D
:104BD0004042BDE8F08FFFE784461598C1F313010A
:104BE000C0F30A50A0F2F5304FEA601800F01F063B
:104BF000C6F12000139000200690079041F4801E1B
:104C000005206D4676B1664A08EB00017A4452F8F9
:104C1000213002EB8101B3404A68139922FA01F175
:104C2000194305E05F4908EB0002794451F822106E
:104C3000A1FB0E27A1FB0C131A449A4234BF012397
:104C4000002303EB070A05EB8003D3E901B70F4408
:104C50008F4234BF0121002193448B4411B193450D
:104C600002D903E0934501D2012100E00021C3E90C
:104C700001B7514445F82010011EA0F10100C1DC2C
:104C80000298059F00F10050800F12900298DDE914
:104C90000356800001F027F8834628460D9101F065
:104CA00039F86FF01D0201F0CCFECDE90E0130465F
:104CB00001F030F86FF03D0201F0C3FE80468A46F5
:104CC000384601F027F86FF05D0201F0BAFE0746A2
:104CD00042465346119100F0C3FDDDE90E2300F07A
:104CE000BFFD5A460D9B00F0BBFD00250E465A46FF
:104CF00028460D9B01F084FADDE90E2301F080FACD
:104D00004246534601F07CFA3A46119B01F086F97F
:104D1000DFF898A0244A534601F04CF8074688462D
:104D2000234A244B3146284601F044F83A4643468C
:104D300000F096FD074688464FF0A842534631469C
:104D4000284601F037F83A46434600F089FD159AA7
:104D500012F0004F04D0129A81F000415242129298
:104D6000C4E90001129817B0BDE8F08FFB21E93FBC
:104D70007CD90240FB21F93F7370032E8A19A33BB3
:104D8000000040543163621A61B4D03DFB213941C7
:104D900083C8C96D305FE43F0000E03F8C20000015
:104DA00008200000EA1F0000182D4454FB21F93DA3
:104DB0003326A611460B113C2DE9F0414F1E00EBA6
:104DC000C7010446D1E9000115461E4637F0060228
:104DD0000DD02A46334600F0EDFF7F1E04EBC703DB
:104DE000D3E9002300F03CFD37F00602F1D1022F99
:104DF00025D0042F13D0062F18BFBDE8F0812A4616
:104E0000334600F0D7FFD4E90A2300F029FD2A46F3
:104E1000334600F0CFFFD4E9082300F021FD2A46F5
:104E2000334600F0C7FFD4E9062300F019FD2A46F7
:104E3000334600F0BFFFD4E9042300F011FD2A46F9
:104E4000334600F0B7FFD4E9022300F009FD2A46FB
:104E5000334600F0AFFFD4E90023BDE8F04100F095
:104E6000FFBC00002DE9F04D04468CB0904821F0C5
:104E70000047164698460D460991874206DA2046B5
:104E8000294600F001FF002800F0AE808948B842B2
:104E90001CDC09980028BCBF85F0004588F000485C
:104EA000854A864B2046294601F0B8F804460D464F
:104EB000324643468248834901F0A2F922462B46F6
:104EC00000F0CEFC002604460D46B04622462B4696
:104ED0001046194600F06EFF8B46824602460B468E
:104EE00000F068FF0246089077480B4600910621C3
:104EF0007844FFF761FFCDE9031074480621784438
:104F0000009B089AFFF758FF52465B4600F052FF9D
:104F1000CDE9051052465B462046294600F04AFF7F
:104F200007910090DDE90310DDE9053200F098FCFF
:104F3000079B009A00F03EFF3246434600F090FC8B
:104F400052465B4600F036FF3246434600F088FC8E
:104F500080460E465E4A5F4B0799009800F02AFF94
:104F60004246334600F07CFC82468B4622462B4666
:104F700000F076FC80464F480E46B84214985BDC41
:104F800000F0B1FE074642463346059100F068FC4A
:104F9000CDE90110424633461046194600F00AFF9B
:104FA000DDE9013200F018FD52465B4601F028F9B8
:104FB00022462B4601F032F8012201F042FD3A462A
:104FC000059B01F02BF804460D460998022101EAE1
:104FD000A070C0F1010000F086FE0CB022462B4606
:104FE000BDE8F04D00F0E6BE1498401C3843204365
:104FF0000BD01498012812D00CB022462B46BDE8E5
:10500000F04D0020344900F0E7BC0CB025F000431F
:105010002246BDE8F04D0020304900F0DDBC2046BE
:105020002946FFF7D5FC042808BF00F065F82046A4
:105030000CB02946BDE8F08D012802BF40460CB0F7
:10504000BDE8F08D00270B463A462046294600F081
:10505000E5FF52465B4600F0E1FF04460D4642463E
:10506000334600201C4900F0B7FC83463A46884688
:105070003346104600F09EFE0022184B00F0F0FB75
:1050800006468A4622462B463846414600F092FEA6
:105090003246534600F0E4FB5A46434600F08AFE8F
:1050A0000CB03A464346BDE8F04D00F0D9BB0000D5
:1050B0000000303E2894E53F182D4454FB21E93F81
:1050C000075C143326A6813CBC1D0000DE1D0000D9
:1050D000635555555555D53F0000F0BF0000F03FD2
:1050E000012201F0AEBC00F0BBBB0022134610460B
:1050F000114600F071BC0000024A0020110701F0C7
:10510000A0BC000001FDFFFF2DE9F04D8D4F21F007
:10511000004A86B005460C46BA452ADBAAEB0700D2
:1051200028430AD08848824501DC1AD1CDB106B0A7
:105130002846BDE8F04DFFF7D3BF844A844B28468C
:1051400000F038FE07460E46824A834B2846214629
:1051500000F030FE06B03A463346BDE8F04D00F0B0
:105160007FBB0120FBF77FF806B0BDE8F04DFFF7ED
:10517000BCBF7A48824542DABAF1795F0BDA284639
:10518000FFF726FC042808BFFFF7B6FF284606B045
:105190002146BDE8F08D2A460B46104600F00AFE77
:1051A000834602466E480E460B4606217844FFF7BA
:1051B00003FE5A46334600F0FDFD804669488A46A4
:1051C0005A46334604217844FFF7F6FD5A463346E3
:1051D00000F0F0FD00223B4600F042FB02460B4689
:1051E0004046514600F0F8FB2A46234600F0E2FD17
:1051F00006B02A462346BDE8F04D00F031BB2846F4
:1052000024F0004100223D463B4600F007FF4FF0EE
:10521000FF3201F016FC0646024653480F460B4685
:1052200006217844FFF7C8FD32463B4600F0C2FD38
:10523000CDE900014D4832463B4604217844FFF752
:10524000BBFD32463B4600F0B5FD00222B4600F088
:1052500007FB834602913046394600F077FA8046D4
:1052600043480D46504517DCDDE900015A46029BD4
:1052700000F0B2FB42462B4600F09CFD42462B4616
:1052800000F0EEFA012201F0DCFB304A304B00F076
:10529000B7FF304A304B4CE04FF0000A52460B4605
:1052A000404600F0DDFACDE9031052462B46104689
:1052B000194600F07FFD32463B4600F0AFFEDDE9C7
:1052C000033200F089FB06460F46DDE900015A462D
:1052D000029B00F081FB8346009101223046394653
:1052E00001F0AFFB194A1A4B00F098FE06460F4634
:1052F00001224046294601F0A4FB5A46009B00F0DB
:1053000059FD32463B4600F07BFF06460F46012220
:105310005046294601F095FB0E4DDFF858802A468D
:10532000434600F07BFE32463B4600F077FE2A46BD
:10533000434600F073FE002CD8BF81F0004106B058
:10534000BDE8F08D0000F03F0000F07F075C1433F3
:1053500026A6913C182D4454FB21F93F0000E03F64
:10536000481900005E190000D2180000E81800007B
:105370003333EF3FFB21E93F2DE9F84F04460D465B
:1053800021F0004000917349814211DC724988424A
:1053900001DC06D12CB120462946BDE8F84FFFF7C5
:1053A0009FBE6E48002DCCBF6D496E49BDE8F88F99
:1053B0006D49814211DD6D498142D8BF4FF0FF3602
:1053C0006DDD20462946FFF703FB042808BFFFF7E1
:1053D00093FE20462946BDE8F88F6549654F25F0C4
:1053E0000045814233DD6449814219DD00263246A1
:1053F0004FF080432046294600F032FA80468A4624
:1054000001222046294601F01CFB00223B4600F009
:10541000F7FE4246534600F0DFFA04460D463EE0F2
:1054200001260022BA463B462046294600F018FADB
:1054300080460F46002253462046294600F0E0FEF3
:1054400042463B4600F0C8FA04460D4627E04B4969
:1054500081421BDDDFF828A10226002253462046A8
:10546000294600F0A7FC00223B4600F0F9F98046EF
:105470000F46002253462046294600F0C1FE424610
:105480003B4600F0A9FA04460D4608E003262246F2
:105490002B4600203B4900F09FFA04460D46224669
:1054A0002B461046194600F085FC8B468246024684
:1054B0000B4600F07FFC07460246334888460B4601
:1054C00006217844FFF778FC52465B4600F072FCF8
:1054D00082462E488B463A46434605217844FFF7DC
:1054E0006BFC3A46434600F065FC02460B46002E34
:1054F000504659460CDA00F0B3F922462B4600F02C
:1055000059FC01B022462B46BDE8F04F00F086BDA5
:1055100000F0A6F922462B4600F04CFC1C4A7A44C7
:1055200002EBC603D3E9002300F06AFE22462B46B5
:1055300000F066FE174A7A4402EBC603D3E9002363
:1055400000F06CFD009A002AB8BF81F00041BDE870
:10555000F88F0000000010440000F07F182D445424
:10556000FB21F93FFB21F9BF0000DC3F0000203E9A
:105570000000F33F0000F03F0000E63F00800340E2
:105580000000F83F0000F0BFEA160000A816000077
:10559000461600000E1600002DE9F04D9446CCF1A1
:1055A000000423F000464CEA0404524F46EAD47447
:1055B0009A46884621F00042BC4206D8454240EA5D
:1055C000050442EAD474BC4204D9BDE8F04D6246F9
:1055D000FFF789BDAAF14055A5F17F6555EA0C0496
:1055E0000BD0022404EAAA74434DDFF810E144EA28
:1055F000D87452EA000B04D00CE0BDE8F04DFFF780
:10560000BBBE002C14BF012CBDE8F08D022C30D0A5
:10561000032C32D056EA0C0B0AD0BE4220D1BA423B
:1056200009D126F0804622F080423346114617E029
:1056300000291ADB25E0DFF8C8B0FB44002C04BFCA
:10564000DBE90001BDE8F08D012C02BFDBE90001C0
:1056500081F00041BDE8F08D022C0AD0032C0CD063
:10566000BA4212D1B8F1000F0BDA23482549BDE840
:10567000F08D28462449BDE8F08D28467146BDE8E6
:10568000F08D1D482149BDE8F08D921B12153C2A72
:10569000C4BF19481D490EDCBAF1000FBEBF12F19C
:1056A0003C0F0020014606DB624600F095F921F030
:1056B0000041FFF761FE002C08BFBDE8F08D012C12
:1056C00004BF81F00041BDE8F08D114A114B022C5E
:1056D00007D000F095FD2A46BDE8F04D0A4B00F0DA
:1056E0008FBD00F08DFD2A46BDE8F04D064B00F061
:1056F00095BC00000000F07F182D4454FB2109C028
:10570000A2150000FB21F9BFFB210940FB21F93F55
:10571000075C143326A6A13CFBF70CFFFEF79DFCAB
:10572000FEF78AF9FEF766F9FEF7EEF9FEF70AFAD8
:10573000FEF70AFBFEF724FAFEF75AFAFEF7B2FA72
:10574000FEF71CFE01E0FEF797FEFCE72DE9F041B5
:1057500006460F4600F06EFC041E0D4618BF0120E1
:10576000284320F00040C0F17F6000F1E040C00F0E
:105770000ED0301C18BF0120384320F00040C0F18B
:105780007F6000F1E040C00F04BF0120FAF76BFD1D
:1057900020462946BDE8F08110B5164B21F00042A5
:1057A000012486B09A4203DC0022134600941CE0D8
:1057B000114B9A4208D140B94FF00100FAF753FD5E
:1057C000FFF793FC06B010BD03DBFFF789FC06B0C2
:1057D00010BD02AAFFF72CF900F00100A4EB400075
:1057E0000DF1080C00909CE80F00FFF73BFB06B0A2
:1057F00010BD0000FB21E93F0000F07F21F00042D6
:10580000A2F16052B2F5801F01F0004328BFD2F12F
:105810007F6C0BD95FEA001C43EAC20242EB507076
:1058200018BF704728BF20F001007047B2F5801FF5
:10583000BCBF184670474FEA410C1CF5001F02D24E
:10584000084601F052B870B500F05EFB0000008918
:10585000FFF7F6BF4FF00040A0F580007047000052
:1058600010B591EA030F48BF83F0004300F1D084E4
:10587000841A71EB030C05D2121943EB0C03001BC5
:1058800061EB0C01DFF824E14FEA1154A4EB135C47
:105890001EEA430F18BF9EEA445F73D023EA0E034B
:1058A000DCF1200E21EA045143F4801332D322FAB2
:1058B0000CFE10EB0E0023FA0CFE41EB0E01CCF1B6
:1058C000200E03FA0EFE10EB0E0051F10001B1F5AF
:1058D000801FCCF1200E32D201EB045112FA0EF2ED
:1058E000BDE8104058BF7047401C38BF5FEA420215
:1058F00018BF7047002814BF20F0010041F10001DB
:105900004FEA410313F5001F38BF7047A1F1C041B2
:1059100000F048BB012A43EB0302ACF1200CDCF1A0
:105920001F0E32BF4FF0000E23FA0CF310EB0300F2
:1059300041EB0451B4EB115FD0D0A1EB045101F560
:10594000801149085FEA300001EB04510ED350F199
:10595000000038BF12FA0EFE08D1BDE81040C9E7BA
:10596000401C38BF5FEA4202CAD1C3E7BDE810401D
:105970004FEA410313F5001F38BF7047A1F1C04142
:1059800000F010BB9EEA445F08D011EA5E0FBDE84C
:10599000104004BF01F0004100207047BDE81040F6
:1059A00070B500F0B1FA00BF64FBBE3E0000E0FF3E
:1059B00002494FF0000001F012B800BF0000F87F6C
:1059C000491058BFC1F140415B1058BFC3F140437B
:1059D0008B42EFF3008070472DE9C04130B4DFF80F
:1059E000A0C23CEA111418BF3CEA131400F0EC808A
:1059F00081EA03051CEA111444EAD57418BF1CEAB5
:105A0000131500F0C780A4EB05044FF0004545EAEC
:105A1000C12145EAC32341EA505143EA525304F1FC
:105A20007F74994204F500344FEAC0204FEAC22245
:105A300008BF904200F09C804FEA13650FF24016B9
:105A4000765D4FEA134506FB05F7C7F1807706FB45
:105A500007F74FEAD737A7FB03687642C8F58038C7
:105A6000A7FB06CE38BFA8F1010807FB08E64FF0F8
:105A7000000EA6FB028CE6FB03CEDCF1000CCEF19F
:105A8000004E38BFAEF1010EA6FB0C584FF00007D8
:105A90004FF00005E6FB0E87A1FB08C6A0FB07CE72
:105AA00016EB0E0645F10005E1FB076515F1E04E2A
:105AB0007EBFA4F580345FEA46066D4116F180078B
:105AC00045F100054FEA17274FEA066647EA0567E2
:105AD000A6F1DE46B6F1805F4FEA15251FD938469C
